{
  "contractName": "CrackleRivals",
  "abi": [
    {
      "inputs": [],
      "stateMutability": "nonpayable",
      "type": "constructor"
    },
    {
      "anonymous": false,
      "inputs": [
        {
          "indexed": true,
          "internalType": "address",
          "name": "owner",
          "type": "address"
        },
        {
          "indexed": true,
          "internalType": "address",
          "name": "approved",
          "type": "address"
        },
        {
          "indexed": true,
          "internalType": "uint256",
          "name": "tokenId",
          "type": "uint256"
        }
      ],
      "name": "Approval",
      "type": "event"
    },
    {
      "anonymous": false,
      "inputs": [
        {
          "indexed": true,
          "internalType": "address",
          "name": "owner",
          "type": "address"
        },
        {
          "indexed": true,
          "internalType": "address",
          "name": "operator",
          "type": "address"
        },
        {
          "indexed": false,
          "internalType": "bool",
          "name": "approved",
          "type": "bool"
        }
      ],
      "name": "ApprovalForAll",
      "type": "event"
    },
    {
      "anonymous": false,
      "inputs": [
        {
          "indexed": false,
          "internalType": "uint256",
          "name": "characterCardId",
          "type": "uint256"
        }
      ],
      "name": "CharacterCardMinted",
      "type": "event"
    },
    {
      "anonymous": false,
      "inputs": [
        {
          "indexed": false,
          "internalType": "uint256",
          "name": "characterCardId",
          "type": "uint256"
        },
        {
          "indexed": false,
          "internalType": "address",
          "name": "oldOwner",
          "type": "address"
        },
        {
          "indexed": false,
          "internalType": "address",
          "name": "newOwner",
          "type": "address"
        }
      ],
      "name": "CharacterCardTransfered",
      "type": "event"
    },
    {
      "anonymous": false,
      "inputs": [
        {
          "indexed": false,
          "internalType": "uint256",
          "name": "characterId",
          "type": "uint256"
        }
      ],
      "name": "CharacterMinted",
      "type": "event"
    },
    {
      "anonymous": false,
      "inputs": [
        {
          "indexed": false,
          "internalType": "uint256",
          "name": "clanId",
          "type": "uint256"
        }
      ],
      "name": "ClanMinted",
      "type": "event"
    },
    {
      "anonymous": false,
      "inputs": [
        {
          "indexed": true,
          "internalType": "address",
          "name": "previousOwner",
          "type": "address"
        },
        {
          "indexed": true,
          "internalType": "address",
          "name": "newOwner",
          "type": "address"
        }
      ],
      "name": "OwnershipTransferred",
      "type": "event"
    },
    {
      "anonymous": false,
      "inputs": [
        {
          "indexed": true,
          "internalType": "address",
          "name": "from",
          "type": "address"
        },
        {
          "indexed": true,
          "internalType": "address",
          "name": "to",
          "type": "address"
        },
        {
          "indexed": true,
          "internalType": "uint256",
          "name": "tokenId",
          "type": "uint256"
        }
      ],
      "name": "Transfer",
      "type": "event"
    },
    {
      "inputs": [
        {
          "internalType": "address",
          "name": "to",
          "type": "address"
        },
        {
          "internalType": "uint256",
          "name": "tokenId",
          "type": "uint256"
        }
      ],
      "name": "approve",
      "outputs": [],
      "stateMutability": "nonpayable",
      "type": "function"
    },
    {
      "inputs": [
        {
          "internalType": "address",
          "name": "owner",
          "type": "address"
        }
      ],
      "name": "balanceOf",
      "outputs": [
        {
          "internalType": "uint256",
          "name": "",
          "type": "uint256"
        }
      ],
      "stateMutability": "view",
      "type": "function",
      "constant": true
    },
    {
      "inputs": [
        {
          "internalType": "uint256",
          "name": "tokenId",
          "type": "uint256"
        }
      ],
      "name": "getApproved",
      "outputs": [
        {
          "internalType": "address",
          "name": "",
          "type": "address"
        }
      ],
      "stateMutability": "view",
      "type": "function",
      "constant": true
    },
    {
      "inputs": [
        {
          "internalType": "address",
          "name": "owner",
          "type": "address"
        },
        {
          "internalType": "address",
          "name": "operator",
          "type": "address"
        }
      ],
      "name": "isApprovedForAll",
      "outputs": [
        {
          "internalType": "bool",
          "name": "",
          "type": "bool"
        }
      ],
      "stateMutability": "view",
      "type": "function",
      "constant": true
    },
    {
      "inputs": [],
      "name": "name",
      "outputs": [
        {
          "internalType": "string",
          "name": "",
          "type": "string"
        }
      ],
      "stateMutability": "view",
      "type": "function",
      "constant": true
    },
    {
      "inputs": [],
      "name": "owner",
      "outputs": [
        {
          "internalType": "address",
          "name": "",
          "type": "address"
        }
      ],
      "stateMutability": "view",
      "type": "function",
      "constant": true
    },
    {
      "inputs": [
        {
          "internalType": "uint256",
          "name": "tokenId",
          "type": "uint256"
        }
      ],
      "name": "ownerOf",
      "outputs": [
        {
          "internalType": "address",
          "name": "",
          "type": "address"
        }
      ],
      "stateMutability": "view",
      "type": "function",
      "constant": true
    },
    {
      "inputs": [],
      "name": "renounceOwnership",
      "outputs": [],
      "stateMutability": "nonpayable",
      "type": "function"
    },
    {
      "inputs": [
        {
          "internalType": "address",
          "name": "from",
          "type": "address"
        },
        {
          "internalType": "address",
          "name": "to",
          "type": "address"
        },
        {
          "internalType": "uint256",
          "name": "tokenId",
          "type": "uint256"
        }
      ],
      "name": "safeTransferFrom",
      "outputs": [],
      "stateMutability": "nonpayable",
      "type": "function"
    },
    {
      "inputs": [
        {
          "internalType": "address",
          "name": "from",
          "type": "address"
        },
        {
          "internalType": "address",
          "name": "to",
          "type": "address"
        },
        {
          "internalType": "uint256",
          "name": "tokenId",
          "type": "uint256"
        },
        {
          "internalType": "bytes",
          "name": "_data",
          "type": "bytes"
        }
      ],
      "name": "safeTransferFrom",
      "outputs": [],
      "stateMutability": "nonpayable",
      "type": "function"
    },
    {
      "inputs": [
        {
          "internalType": "address",
          "name": "operator",
          "type": "address"
        },
        {
          "internalType": "bool",
          "name": "approved",
          "type": "bool"
        }
      ],
      "name": "setApprovalForAll",
      "outputs": [],
      "stateMutability": "nonpayable",
      "type": "function"
    },
    {
      "inputs": [
        {
          "internalType": "bytes4",
          "name": "interfaceId",
          "type": "bytes4"
        }
      ],
      "name": "supportsInterface",
      "outputs": [
        {
          "internalType": "bool",
          "name": "",
          "type": "bool"
        }
      ],
      "stateMutability": "view",
      "type": "function",
      "constant": true
    },
    {
      "inputs": [],
      "name": "symbol",
      "outputs": [
        {
          "internalType": "string",
          "name": "",
          "type": "string"
        }
      ],
      "stateMutability": "view",
      "type": "function",
      "constant": true
    },
    {
      "inputs": [
        {
          "internalType": "uint256",
          "name": "tokenId",
          "type": "uint256"
        }
      ],
      "name": "tokenURI",
      "outputs": [
        {
          "internalType": "string",
          "name": "",
          "type": "string"
        }
      ],
      "stateMutability": "view",
      "type": "function",
      "constant": true
    },
    {
      "inputs": [
        {
          "internalType": "address",
          "name": "from",
          "type": "address"
        },
        {
          "internalType": "address",
          "name": "to",
          "type": "address"
        },
        {
          "internalType": "uint256",
          "name": "tokenId",
          "type": "uint256"
        }
      ],
      "name": "transferFrom",
      "outputs": [],
      "stateMutability": "nonpayable",
      "type": "function"
    },
    {
      "inputs": [
        {
          "internalType": "address",
          "name": "newOwner",
          "type": "address"
        }
      ],
      "name": "transferOwnership",
      "outputs": [],
      "stateMutability": "nonpayable",
      "type": "function"
    },
    {
      "inputs": [
        {
          "internalType": "string",
          "name": "name",
          "type": "string"
        },
        {
          "internalType": "string",
          "name": "description",
          "type": "string"
        },
        {
          "components": [
            {
              "components": [
                {
                  "internalType": "enum CrackleRivals.ModifierLife",
                  "name": "modifierLife",
                  "type": "uint8"
                },
                {
                  "internalType": "uint8",
                  "name": "attack",
                  "type": "uint8"
                },
                {
                  "internalType": "uint8",
                  "name": "damage",
                  "type": "uint8"
                },
                {
                  "internalType": "uint8",
                  "name": "energy",
                  "type": "uint8"
                },
                {
                  "internalType": "uint8",
                  "name": "health",
                  "type": "uint8"
                }
              ],
              "internalType": "struct CrackleRivals.Modifier",
              "name": "selfModifier",
              "type": "tuple"
            },
            {
              "components": [
                {
                  "internalType": "enum CrackleRivals.ModifierLife",
                  "name": "modifierLife",
                  "type": "uint8"
                },
                {
                  "internalType": "uint8",
                  "name": "attack",
                  "type": "uint8"
                },
                {
                  "internalType": "uint8",
                  "name": "damage",
                  "type": "uint8"
                },
                {
                  "internalType": "uint8",
                  "name": "energy",
                  "type": "uint8"
                },
                {
                  "internalType": "uint8",
                  "name": "health",
                  "type": "uint8"
                }
              ],
              "internalType": "struct CrackleRivals.Modifier",
              "name": "rivalModifier",
              "type": "tuple"
            },
            {
              "components": [
                {
                  "internalType": "bool",
                  "name": "skill",
                  "type": "bool"
                },
                {
                  "internalType": "bool",
                  "name": "ability",
                  "type": "bool"
                },
                {
                  "internalType": "bool",
                  "name": "attackModifier",
                  "type": "bool"
                },
                {
                  "internalType": "bool",
                  "name": "damageModifier",
                  "type": "bool"
                },
                {
                  "internalType": "bool",
                  "name": "energyModifier",
                  "type": "bool"
                },
                {
                  "internalType": "bool",
                  "name": "healthModifier",
                  "type": "bool"
                }
              ],
              "internalType": "struct CrackleRivals.Blocker",
              "name": "blocks",
              "type": "tuple"
            }
          ],
          "internalType": "struct CrackleRivals.Attribute",
          "name": "skill",
          "type": "tuple"
        }
      ],
      "name": "mintClan",
      "outputs": [],
      "stateMutability": "nonpayable",
      "type": "function"
    },
    {
      "inputs": [
        {
          "internalType": "uint256",
          "name": "clanId",
          "type": "uint256"
        },
        {
          "internalType": "string",
          "name": "name",
          "type": "string"
        },
        {
          "internalType": "string",
          "name": "description",
          "type": "string"
        },
        {
          "internalType": "string",
          "name": "hash",
          "type": "string"
        },
        {
          "components": [
            {
              "components": [
                {
                  "internalType": "enum CrackleRivals.ModifierLife",
                  "name": "modifierLife",
                  "type": "uint8"
                },
                {
                  "internalType": "uint8",
                  "name": "attack",
                  "type": "uint8"
                },
                {
                  "internalType": "uint8",
                  "name": "damage",
                  "type": "uint8"
                },
                {
                  "internalType": "uint8",
                  "name": "energy",
                  "type": "uint8"
                },
                {
                  "internalType": "uint8",
                  "name": "health",
                  "type": "uint8"
                }
              ],
              "internalType": "struct CrackleRivals.Modifier",
              "name": "selfModifier",
              "type": "tuple"
            },
            {
              "components": [
                {
                  "internalType": "enum CrackleRivals.ModifierLife",
                  "name": "modifierLife",
                  "type": "uint8"
                },
                {
                  "internalType": "uint8",
                  "name": "attack",
                  "type": "uint8"
                },
                {
                  "internalType": "uint8",
                  "name": "damage",
                  "type": "uint8"
                },
                {
                  "internalType": "uint8",
                  "name": "energy",
                  "type": "uint8"
                },
                {
                  "internalType": "uint8",
                  "name": "health",
                  "type": "uint8"
                }
              ],
              "internalType": "struct CrackleRivals.Modifier",
              "name": "rivalModifier",
              "type": "tuple"
            },
            {
              "components": [
                {
                  "internalType": "bool",
                  "name": "skill",
                  "type": "bool"
                },
                {
                  "internalType": "bool",
                  "name": "ability",
                  "type": "bool"
                },
                {
                  "internalType": "bool",
                  "name": "attackModifier",
                  "type": "bool"
                },
                {
                  "internalType": "bool",
                  "name": "damageModifier",
                  "type": "bool"
                },
                {
                  "internalType": "bool",
                  "name": "energyModifier",
                  "type": "bool"
                },
                {
                  "internalType": "bool",
                  "name": "healthModifier",
                  "type": "bool"
                }
              ],
              "internalType": "struct CrackleRivals.Blocker",
              "name": "blocks",
              "type": "tuple"
            }
          ],
          "internalType": "struct CrackleRivals.Attribute",
          "name": "ability",
          "type": "tuple"
        }
      ],
      "name": "mintCharacter",
      "outputs": [],
      "stateMutability": "nonpayable",
      "type": "function"
    },
    {
      "inputs": [
        {
          "internalType": "enum CrackleRivals.CardType",
          "name": "cardType",
          "type": "uint8"
        },
        {
          "internalType": "uint256",
          "name": "characterId",
          "type": "uint256"
        },
        {
          "internalType": "uint8",
          "name": "attack",
          "type": "uint8"
        },
        {
          "internalType": "uint8",
          "name": "damage",
          "type": "uint8"
        }
      ],
      "name": "mintCard",
      "outputs": [],
      "stateMutability": "nonpayable",
      "type": "function"
    },
    {
      "inputs": [
        {
          "internalType": "address",
          "name": "to",
          "type": "address"
        },
        {
          "internalType": "uint256",
          "name": "characterCardId",
          "type": "uint256"
        }
      ],
      "name": "transferCard",
      "outputs": [],
      "stateMutability": "nonpayable",
      "type": "function"
    },
    {
      "inputs": [
        {
          "internalType": "uint256",
          "name": "clanId",
          "type": "uint256"
        }
      ],
      "name": "getClan",
      "outputs": [
        {
          "components": [
            {
              "internalType": "string",
              "name": "name",
              "type": "string"
            },
            {
              "internalType": "string",
              "name": "description",
              "type": "string"
            },
            {
              "components": [
                {
                  "components": [
                    {
                      "internalType": "enum CrackleRivals.ModifierLife",
                      "name": "modifierLife",
                      "type": "uint8"
                    },
                    {
                      "internalType": "uint8",
                      "name": "attack",
                      "type": "uint8"
                    },
                    {
                      "internalType": "uint8",
                      "name": "damage",
                      "type": "uint8"
                    },
                    {
                      "internalType": "uint8",
                      "name": "energy",
                      "type": "uint8"
                    },
                    {
                      "internalType": "uint8",
                      "name": "health",
                      "type": "uint8"
                    }
                  ],
                  "internalType": "struct CrackleRivals.Modifier",
                  "name": "selfModifier",
                  "type": "tuple"
                },
                {
                  "components": [
                    {
                      "internalType": "enum CrackleRivals.ModifierLife",
                      "name": "modifierLife",
                      "type": "uint8"
                    },
                    {
                      "internalType": "uint8",
                      "name": "attack",
                      "type": "uint8"
                    },
                    {
                      "internalType": "uint8",
                      "name": "damage",
                      "type": "uint8"
                    },
                    {
                      "internalType": "uint8",
                      "name": "energy",
                      "type": "uint8"
                    },
                    {
                      "internalType": "uint8",
                      "name": "health",
                      "type": "uint8"
                    }
                  ],
                  "internalType": "struct CrackleRivals.Modifier",
                  "name": "rivalModifier",
                  "type": "tuple"
                },
                {
                  "components": [
                    {
                      "internalType": "bool",
                      "name": "skill",
                      "type": "bool"
                    },
                    {
                      "internalType": "bool",
                      "name": "ability",
                      "type": "bool"
                    },
                    {
                      "internalType": "bool",
                      "name": "attackModifier",
                      "type": "bool"
                    },
                    {
                      "internalType": "bool",
                      "name": "damageModifier",
                      "type": "bool"
                    },
                    {
                      "internalType": "bool",
                      "name": "energyModifier",
                      "type": "bool"
                    },
                    {
                      "internalType": "bool",
                      "name": "healthModifier",
                      "type": "bool"
                    }
                  ],
                  "internalType": "struct CrackleRivals.Blocker",
                  "name": "blocks",
                  "type": "tuple"
                }
              ],
              "internalType": "struct CrackleRivals.Attribute",
              "name": "skill",
              "type": "tuple"
            }
          ],
          "internalType": "struct CrackleRivals.Clan",
          "name": "",
          "type": "tuple"
        }
      ],
      "stateMutability": "view",
      "type": "function",
      "constant": true
    },
    {
      "inputs": [
        {
          "internalType": "uint256",
          "name": "characterId",
          "type": "uint256"
        }
      ],
      "name": "getCharacter",
      "outputs": [
        {
          "components": [
            {
              "internalType": "uint256",
              "name": "clanId",
              "type": "uint256"
            },
            {
              "internalType": "string",
              "name": "name",
              "type": "string"
            },
            {
              "internalType": "string",
              "name": "description",
              "type": "string"
            },
            {
              "internalType": "string",
              "name": "hash",
              "type": "string"
            },
            {
              "components": [
                {
                  "components": [
                    {
                      "internalType": "enum CrackleRivals.ModifierLife",
                      "name": "modifierLife",
                      "type": "uint8"
                    },
                    {
                      "internalType": "uint8",
                      "name": "attack",
                      "type": "uint8"
                    },
                    {
                      "internalType": "uint8",
                      "name": "damage",
                      "type": "uint8"
                    },
                    {
                      "internalType": "uint8",
                      "name": "energy",
                      "type": "uint8"
                    },
                    {
                      "internalType": "uint8",
                      "name": "health",
                      "type": "uint8"
                    }
                  ],
                  "internalType": "struct CrackleRivals.Modifier",
                  "name": "selfModifier",
                  "type": "tuple"
                },
                {
                  "components": [
                    {
                      "internalType": "enum CrackleRivals.ModifierLife",
                      "name": "modifierLife",
                      "type": "uint8"
                    },
                    {
                      "internalType": "uint8",
                      "name": "attack",
                      "type": "uint8"
                    },
                    {
                      "internalType": "uint8",
                      "name": "damage",
                      "type": "uint8"
                    },
                    {
                      "internalType": "uint8",
                      "name": "energy",
                      "type": "uint8"
                    },
                    {
                      "internalType": "uint8",
                      "name": "health",
                      "type": "uint8"
                    }
                  ],
                  "internalType": "struct CrackleRivals.Modifier",
                  "name": "rivalModifier",
                  "type": "tuple"
                },
                {
                  "components": [
                    {
                      "internalType": "bool",
                      "name": "skill",
                      "type": "bool"
                    },
                    {
                      "internalType": "bool",
                      "name": "ability",
                      "type": "bool"
                    },
                    {
                      "internalType": "bool",
                      "name": "attackModifier",
                      "type": "bool"
                    },
                    {
                      "internalType": "bool",
                      "name": "damageModifier",
                      "type": "bool"
                    },
                    {
                      "internalType": "bool",
                      "name": "energyModifier",
                      "type": "bool"
                    },
                    {
                      "internalType": "bool",
                      "name": "healthModifier",
                      "type": "bool"
                    }
                  ],
                  "internalType": "struct CrackleRivals.Blocker",
                  "name": "blocks",
                  "type": "tuple"
                }
              ],
              "internalType": "struct CrackleRivals.Attribute",
              "name": "ability",
              "type": "tuple"
            }
          ],
          "internalType": "struct CrackleRivals.Character",
          "name": "",
          "type": "tuple"
        }
      ],
      "stateMutability": "view",
      "type": "function",
      "constant": true
    },
    {
      "inputs": [
        {
          "internalType": "uint256",
          "name": "characterCardId",
          "type": "uint256"
        }
      ],
      "name": "getCharacterCard",
      "outputs": [
        {
          "components": [
            {
              "internalType": "enum CrackleRivals.CardType",
              "name": "cardType",
              "type": "uint8"
            },
            {
              "internalType": "uint256",
              "name": "characterId",
              "type": "uint256"
            },
            {
              "internalType": "uint8",
              "name": "attack",
              "type": "uint8"
            },
            {
              "internalType": "uint8",
              "name": "damage",
              "type": "uint8"
            },
            {
              "internalType": "address",
              "name": "owner",
              "type": "address"
            }
          ],
          "internalType": "struct CrackleRivals.CharacterCard",
          "name": "",
          "type": "tuple"
        }
      ],
      "stateMutability": "view",
      "type": "function",
      "constant": true
    },
    {
      "inputs": [
        {
          "internalType": "enum CrackleRivals.CardType",
          "name": "cardType",
          "type": "uint8"
        }
      ],
      "name": "getCardTypeMaxSupply",
      "outputs": [
        {
          "internalType": "uint256",
          "name": "",
          "type": "uint256"
        }
      ],
      "stateMutability": "view",
      "type": "function",
      "constant": true
    }
  ],
  "bytecode": "0x608060405260006009556000600b556000600d553480156200002057600080fd5b506040518060400160405280600e81526020017f437261636b6c6520526976616c730000000000000000000000000000000000008152506040518060400160405280600381526020017f434b4c00000000000000000000000000000000000000000000000000000000008152508160009080519060200190620000a592919062000434565b508060019080519060200190620000be92919062000434565b505050620000e1620000d56200036660201b60201c565b6200036e60201b60201c565b602d600760006001600481111562000122577f4e487b7100000000000000000000000000000000000000000000000000000000600052602160045260246000fd5b60048111156200015b577f4e487b7100000000000000000000000000000000000000000000000000000000600052602160045260246000fd5b815260200190815260200160002060006101000a81548160ff021916908360ff16021790555060236007600060026004811115620001c2577f4e487b7100000000000000000000000000000000000000000000000000000000600052602160045260246000fd5b6004811115620001fb577f4e487b7100000000000000000000000000000000000000000000000000000000600052602160045260246000fd5b815260200190815260200160002060006101000a81548160ff021916908360ff160217905550600f600760006003600481111562000262577f4e487b7100000000000000000000000000000000000000000000000000000000600052602160045260246000fd5b60048111156200029b577f4e487b7100000000000000000000000000000000000000000000000000000000600052602160045260246000fd5b815260200190815260200160002060006101000a81548160ff021916908360ff16021790555060056007600060048081111562000301577f4e487b7100000000000000000000000000000000000000000000000000000000600052602160045260246000fd5b60048111156200033a577f4e487b7100000000000000000000000000000000000000000000000000000000600052602160045260246000fd5b815260200190815260200160002060006101000a81548160ff021916908360ff16021790555062000549565b600033905090565b6000600660009054906101000a900473ffffffffffffffffffffffffffffffffffffffff16905081600660006101000a81548173ffffffffffffffffffffffffffffffffffffffff021916908373ffffffffffffffffffffffffffffffffffffffff1602179055508173ffffffffffffffffffffffffffffffffffffffff168173ffffffffffffffffffffffffffffffffffffffff167f8be0079c531659141344cd1fd0a4f28419497f9722a3daafe3b4186f6b6457e060405160405180910390a35050565b8280546200044290620004e4565b90600052602060002090601f016020900481019282620004665760008555620004b2565b82601f106200048157805160ff1916838001178555620004b2565b82800160010185558215620004b2579182015b82811115620004b157825182559160200191906001019062000494565b5b509050620004c19190620004c5565b5090565b5b80821115620004e0576000816000905550600101620004c6565b5090565b60006002820490506001821680620004fd57607f821691505b602082108114156200051457620005136200051a565b5b50919050565b7f4e487b7100000000000000000000000000000000000000000000000000000000600052602260045260246000fd5b614dc280620005596000396000f3fe608060405234801561001057600080fd5b50600436106101585760003560e01c80638da5cb5b116100c3578063dabb05311161007c578063dabb0531146103c1578063e0cc3eb6146103f1578063e8e527a914610421578063e985e9c51461043d578063f2fde38b1461046d578063ff4a84991461048957610158565b80638da5cb5b1461030157806395d89b411461031f5780639b81a3591461033d578063a22cb46514610359578063b88d4fde14610375578063c87b56dd1461039157610158565b806323b872dd1161011557806323b872dd1461024357806342842e0e1461025f5780636352211e1461027b57806370a08231146102ab578063715018a6146102db578063771dd25a146102e557610158565b806301ffc9a71461015d57806306fdde031461018d578063081812fc146101ab578063095ea7b3146101db5780631164b992146101f75780632001fbfe14610227575b600080fd5b6101776004803603810190610172919061386b565b6104b9565b6040516101849190614514565b60405180910390f35b61019561059b565b6040516101a2919061452f565b60405180910390f35b6101c560048036038101906101c091906139c9565b61062d565b6040516101d291906144ad565b60405180910390f35b6101f560048036038101906101f0919061382f565b6106b2565b005b610211600480360381019061020c91906139c9565b6107ca565b60405161021e9190614771565b60405180910390f35b610241600480360381019061023c91906139f2565b610918565b005b61025d60048036038101906102589190613729565b610d2c565b005b61027960048036038101906102749190613729565b610d8c565b005b610295600480360381019061029091906139c9565b610dac565b6040516102a291906144ad565b60405180910390f35b6102c560048036038101906102c091906136c4565b610e5e565b6040516102d291906147d0565b60405180910390f35b6102e3610f16565b005b6102ff60048036038101906102fa9190613949565b610f9e565b005b61030961137d565b60405161031691906144ad565b60405180910390f35b6103276113a7565b604051610334919061452f565b60405180910390f35b6103576004803603810190610352919061382f565b611439565b005b610373600480360381019061036e91906137f3565b61157c565b005b61038f600480360381019061038a9190613778565b6116fd565b005b6103ab60048036038101906103a691906139c9565b61175f565b6040516103b8919061452f565b60405180910390f35b6103db60048036038101906103d691906139c9565b611806565b6040516103e8919061478c565b60405180910390f35b61040b600480360381019061040691906139c9565b611cdb565b60405161041891906147ae565b60405180910390f35b61043b600480360381019061043691906138e6565b612114565b005b610457600480360381019061045291906136ed565b61236f565b6040516104649190614514565b60405180910390f35b610487600480360381019061048291906136c4565b612403565b005b6104a3600480360381019061049e91906138bd565b6124fb565b6040516104b091906147d0565b60405180910390f35b60007f80ac58cd000000000000000000000000000000000000000000000000000000007bffffffffffffffffffffffffffffffffffffffffffffffffffffffff1916827bffffffffffffffffffffffffffffffffffffffffffffffffffffffff1916148061058457507f5b5e139f000000000000000000000000000000000000000000000000000000007bffffffffffffffffffffffffffffffffffffffffffffffffffffffff1916827bffffffffffffffffffffffffffffffffffffffffffffffffffffffff1916145b806105945750610593826125af565b5b9050919050565b6060600080546105aa90614b29565b80601f01602080910402602001604051908101604052809291908181526020018280546105d690614b29565b80156106235780601f106105f857610100808354040283529160200191610623565b820191906000526020600020905b81548152906001019060200180831161060657829003601f168201915b5050505050905090565b600061063882612619565b610677576040517f08c379a000000000000000000000000000000000000000000000000000000000815260040161066e906146b1565b60405180910390fd5b6004600083815260200190815260200160002060009054906101000a900473ffffffffffffffffffffffffffffffffffffffff169050919050565b60006106bd82610dac565b90508073ffffffffffffffffffffffffffffffffffffffff168373ffffffffffffffffffffffffffffffffffffffff16141561072e576040517f08c379a000000000000000000000000000000000000000000000000000000000815260040161072590614731565b60405180910390fd5b8073ffffffffffffffffffffffffffffffffffffffff1661074d612685565b73ffffffffffffffffffffffffffffffffffffffff16148061077c575061077b81610776612685565b61236f565b5b6107bb576040517f08c379a00000000000000000000000000000000000000000000000000000000081526004016107b290614631565b60405180910390fd5b6107c5838361268d565b505050565b6107d261315c565b600c60008381526020019081526020016000206040518060a00160405290816000820160009054906101000a900460ff16600481111561083b577f4e487b7100000000000000000000000000000000000000000000000000000000600052602160045260246000fd5b6004811115610873577f4e487b7100000000000000000000000000000000000000000000000000000000600052602160045260246000fd5b8152602001600182015481526020016002820160009054906101000a900460ff1660ff1660ff1681526020016002820160019054906101000a900460ff1660ff1660ff1681526020016002820160029054906101000a900473ffffffffffffffffffffffffffffffffffffffff1673ffffffffffffffffffffffffffffffffffffffff1673ffffffffffffffffffffffffffffffffffffffff16815250509050919050565b610920612685565b73ffffffffffffffffffffffffffffffffffffffff1661093e61137d565b73ffffffffffffffffffffffffffffffffffffffff1614610994576040517f08c379a000000000000000000000000000000000000000000000000000000000815260040161098b906146d1565b60405180910390fd5b6040518060a0016040528086815260200185815260200184815260200183815260200182815250600a6000600b5481526020019081526020016000206000820151816000015560208201518160010190805190602001906109f69291906131df565b506040820151816002019080519060200190610a139291906131df565b506060820151816003019080519060200190610a309291906131df565b5060808201518160040160008201518160000160008201518160000160006101000a81548160ff02191690836004811115610a94577f4e487b7100000000000000000000000000000000000000000000000000000000600052602160045260246000fd5b021790555060208201518160000160016101000a81548160ff021916908360ff16021790555060408201518160000160026101000a81548160ff021916908360ff16021790555060608201518160000160036101000a81548160ff021916908360ff16021790555060808201518160000160046101000a81548160ff021916908360ff160217905550505060208201518160010160008201518160000160006101000a81548160ff02191690836004811115610b79577f4e487b7100000000000000000000000000000000000000000000000000000000600052602160045260246000fd5b021790555060208201518160000160016101000a81548160ff021916908360ff16021790555060408201518160000160026101000a81548160ff021916908360ff16021790555060608201518160000160036101000a81548160ff021916908360ff16021790555060808201518160000160046101000a81548160ff021916908360ff160217905550505060408201518160020160008201518160000160006101000a81548160ff02191690831515021790555060208201518160000160016101000a81548160ff02191690831515021790555060408201518160000160026101000a81548160ff02191690831515021790555060608201518160000160036101000a81548160ff02191690831515021790555060808201518160000160046101000a81548160ff02191690831515021790555060a08201518160000160056101000a81548160ff021916908315150217905550505050509050507fa7cbdf96c309b1b9a2b80226e56339efdb21d389143d0b13f6c3defe47ede6fd600b54604051610d0591906147d0565b60405180910390a1600b6000815480929190610d2090614b5b565b91905055505050505050565b610d3d610d37612685565b82612746565b610d7c576040517f08c379a0000000000000000000000000000000000000000000000000000000008152600401610d7390614751565b60405180910390fd5b610d87838383612824565b505050565b610da7838383604051806020016040528060008152506116fd565b505050565b6000806002600084815260200190815260200160002060009054906101000a900473ffffffffffffffffffffffffffffffffffffffff169050600073ffffffffffffffffffffffffffffffffffffffff168173ffffffffffffffffffffffffffffffffffffffff161415610e55576040517f08c379a0000000000000000000000000000000000000000000000000000000008152600401610e4c90614671565b60405180910390fd5b80915050919050565b60008073ffffffffffffffffffffffffffffffffffffffff168273ffffffffffffffffffffffffffffffffffffffff161415610ecf576040517f08c379a0000000000000000000000000000000000000000000000000000000008152600401610ec690614651565b60405180910390fd5b600360008373ffffffffffffffffffffffffffffffffffffffff1673ffffffffffffffffffffffffffffffffffffffff168152602001908152602001600020549050919050565b610f1e612685565b73ffffffffffffffffffffffffffffffffffffffff16610f3c61137d565b73ffffffffffffffffffffffffffffffffffffffff1614610f92576040517f08c379a0000000000000000000000000000000000000000000000000000000008152600401610f89906146d1565b60405180910390fd5b610f9c6000612a80565b565b610fa6612685565b73ffffffffffffffffffffffffffffffffffffffff16610fc461137d565b73ffffffffffffffffffffffffffffffffffffffff161461101a576040517f08c379a0000000000000000000000000000000000000000000000000000000008152600401611011906146d1565b60405180910390fd5b60405180606001604052808481526020018381526020018281525060086000600954815260200190815260200160002060008201518160000190805190602001906110669291906131df565b5060208201518160010190805190602001906110839291906131df565b5060408201518160020160008201518160000160008201518160000160006101000a81548160ff021916908360048111156110e7577f4e487b7100000000000000000000000000000000000000000000000000000000600052602160045260246000fd5b021790555060208201518160000160016101000a81548160ff021916908360ff16021790555060408201518160000160026101000a81548160ff021916908360ff16021790555060608201518160000160036101000a81548160ff021916908360ff16021790555060808201518160000160046101000a81548160ff021916908360ff160217905550505060208201518160010160008201518160000160006101000a81548160ff021916908360048111156111cc577f4e487b7100000000000000000000000000000000000000000000000000000000600052602160045260246000fd5b021790555060208201518160000160016101000a81548160ff021916908360ff16021790555060408201518160000160026101000a81548160ff021916908360ff16021790555060608201518160000160036101000a81548160ff021916908360ff16021790555060808201518160000160046101000a81548160ff021916908360ff160217905550505060408201518160020160008201518160000160006101000a81548160ff02191690831515021790555060208201518160000160016101000a81548160ff02191690831515021790555060408201518160000160026101000a81548160ff02191690831515021790555060608201518160000160036101000a81548160ff02191690831515021790555060808201518160000160046101000a81548160ff02191690831515021790555060a08201518160000160056101000a81548160ff021916908315150217905550505050509050507f7b0d3f9a3275ff88797b2be24fd4bb5cbd615a15cecfcaede61932bac5d8468360095460405161135891906147d0565b60405180910390a16009600081548092919061137390614b5b565b9190505550505050565b6000600660009054906101000a900473ffffffffffffffffffffffffffffffffffffffff16905090565b6060600180546113b690614b29565b80601f01602080910402602001604051908101604052809291908181526020018280546113e290614b29565b801561142f5780601f106114045761010080835404028352916020019161142f565b820191906000526020600020905b81548152906001019060200180831161141257829003601f168201915b5050505050905090565b3373ffffffffffffffffffffffffffffffffffffffff16600c600083815260200190815260200160002060020160029054906101000a900473ffffffffffffffffffffffffffffffffffffffff1673ffffffffffffffffffffffffffffffffffffffff16146114dd576040517f08c379a00000000000000000000000000000000000000000000000000000000081526004016114d490614611565b60405180910390fd5b6114e8338383612824565b33600c600083815260200190815260200160002060020160026101000a81548173ffffffffffffffffffffffffffffffffffffffff021916908373ffffffffffffffffffffffffffffffffffffffff1602179055507ffdbf46b020dccf3e397a4cd0d567702364e95022c7404c25ff85e9c25dd51b4f813384604051611570939291906147eb565b60405180910390a15050565b611584612685565b73ffffffffffffffffffffffffffffffffffffffff168273ffffffffffffffffffffffffffffffffffffffff1614156115f2576040517f08c379a00000000000000000000000000000000000000000000000000000000081526004016115e9906145d1565b60405180910390fd5b80600560006115ff612685565b73ffffffffffffffffffffffffffffffffffffffff1673ffffffffffffffffffffffffffffffffffffffff16815260200190815260200160002060008473ffffffffffffffffffffffffffffffffffffffff1673ffffffffffffffffffffffffffffffffffffffff16815260200190815260200160002060006101000a81548160ff0219169083151502179055508173ffffffffffffffffffffffffffffffffffffffff166116ac612685565b73ffffffffffffffffffffffffffffffffffffffff167f17307eab39ab6107e8899845ad3d59bd9653f200f220920489ca2b5937696c31836040516116f19190614514565b60405180910390a35050565b61170e611708612685565b83612746565b61174d576040517f08c379a000000000000000000000000000000000000000000000000000000000815260040161174490614751565b60405180910390fd5b61175984848484612b46565b50505050565b606061176a82612619565b6117a9576040517f08c379a00000000000000000000000000000000000000000000000000000000081526004016117a090614711565b60405180910390fd5b60006117b3612ba2565b905060008151116117d357604051806020016040528060008152506117fe565b806117dd84612bb9565b6040516020016117ee929190614489565b6040516020818303038152906040525b915050919050565b61180e613265565b600a60008381526020019081526020016000206040518060a00160405290816000820154815260200160018201805461184690614b29565b80601f016020809104026020016040519081016040528092919081815260200182805461187290614b29565b80156118bf5780601f10611894576101008083540402835291602001916118bf565b820191906000526020600020905b8154815290600101906020018083116118a257829003601f168201915b505050505081526020016002820180546118d890614b29565b80601f016020809104026020016040519081016040528092919081815260200182805461190490614b29565b80156119515780601f1061192657610100808354040283529160200191611951565b820191906000526020600020905b81548152906001019060200180831161193457829003601f168201915b5050505050815260200160038201805461196a90614b29565b80601f016020809104026020016040519081016040528092919081815260200182805461199690614b29565b80156119e35780601f106119b8576101008083540402835291602001916119e3565b820191906000526020600020905b8154815290600101906020018083116119c657829003601f168201915b5050505050815260200160048201604051806060016040529081600082016040518060a00160405290816000820160009054906101000a900460ff166004811115611a57577f4e487b7100000000000000000000000000000000000000000000000000000000600052602160045260246000fd5b6004811115611a8f577f4e487b7100000000000000000000000000000000000000000000000000000000600052602160045260246000fd5b81526020016000820160019054906101000a900460ff1660ff1660ff1681526020016000820160029054906101000a900460ff1660ff1660ff1681526020016000820160039054906101000a900460ff1660ff1660ff1681526020016000820160049054906101000a900460ff1660ff1660ff16815250508152602001600182016040518060a00160405290816000820160009054906101000a900460ff166004811115611b66577f4e487b7100000000000000000000000000000000000000000000000000000000600052602160045260246000fd5b6004811115611b9e577f4e487b7100000000000000000000000000000000000000000000000000000000600052602160045260246000fd5b81526020016000820160019054906101000a900460ff1660ff1660ff1681526020016000820160029054906101000a900460ff1660ff1660ff1681526020016000820160039054906101000a900460ff1660ff1660ff1681526020016000820160049054906101000a900460ff1660ff1660ff16815250508152602001600282016040518060c00160405290816000820160009054906101000a900460ff161515151581526020016000820160019054906101000a900460ff161515151581526020016000820160029054906101000a900460ff161515151581526020016000820160039054906101000a900460ff161515151581526020016000820160049054906101000a900460ff161515151581526020016000820160059054906101000a900460ff16151515158152505081525050815250509050919050565b611ce361329a565b60086000838152602001908152602001600020604051806060016040529081600082018054611d1190614b29565b80601f0160208091040260200160405190810160405280929190818152602001828054611d3d90614b29565b8015611d8a5780601f10611d5f57610100808354040283529160200191611d8a565b820191906000526020600020905b815481529060010190602001808311611d6d57829003601f168201915b50505050508152602001600182018054611da390614b29565b80601f0160208091040260200160405190810160405280929190818152602001828054611dcf90614b29565b8015611e1c5780601f10611df157610100808354040283529160200191611e1c565b820191906000526020600020905b815481529060010190602001808311611dff57829003601f168201915b5050505050815260200160028201604051806060016040529081600082016040518060a00160405290816000820160009054906101000a900460ff166004811115611e90577f4e487b7100000000000000000000000000000000000000000000000000000000600052602160045260246000fd5b6004811115611ec8577f4e487b7100000000000000000000000000000000000000000000000000000000600052602160045260246000fd5b81526020016000820160019054906101000a900460ff1660ff1660ff1681526020016000820160029054906101000a900460ff1660ff1660ff1681526020016000820160039054906101000a900460ff1660ff1660ff1681526020016000820160049054906101000a900460ff1660ff1660ff16815250508152602001600182016040518060a00160405290816000820160009054906101000a900460ff166004811115611f9f577f4e487b7100000000000000000000000000000000000000000000000000000000600052602160045260246000fd5b6004811115611fd7577f4e487b7100000000000000000000000000000000000000000000000000000000600052602160045260246000fd5b81526020016000820160019054906101000a900460ff1660ff1660ff1681526020016000820160029054906101000a900460ff1660ff1660ff1681526020016000820160039054906101000a900460ff1660ff1660ff1681526020016000820160049054906101000a900460ff1660ff1660ff16815250508152602001600282016040518060c00160405290816000820160009054906101000a900460ff161515151581526020016000820160019054906101000a900460ff161515151581526020016000820160029054906101000a900460ff161515151581526020016000820160039054906101000a900460ff161515151581526020016000820160049054906101000a900460ff161515151581526020016000820160059054906101000a900460ff16151515158152505081525050815250509050919050565b61211c612685565b73ffffffffffffffffffffffffffffffffffffffff1661213a61137d565b73ffffffffffffffffffffffffffffffffffffffff1614612190576040517f08c379a0000000000000000000000000000000000000000000000000000000008152600401612187906146d1565b60405180910390fd5b6040518060a001604052808560048111156121d4577f4e487b7100000000000000000000000000000000000000000000000000000000600052602160045260246000fd5b81526020018481526020018360ff1681526020018260ff1681526020013373ffffffffffffffffffffffffffffffffffffffff16815250600c6000600d54815260200190815260200160002060008201518160000160006101000a81548160ff02191690836004811115612271577f4e487b7100000000000000000000000000000000000000000000000000000000600052602160045260246000fd5b02179055506020820151816001015560408201518160020160006101000a81548160ff021916908360ff16021790555060608201518160020160016101000a81548160ff021916908360ff16021790555060808201518160020160026101000a81548173ffffffffffffffffffffffffffffffffffffffff021916908373ffffffffffffffffffffffffffffffffffffffff16021790555090505061231833600d54612d66565b7f7e02246a5bcbee089688078515815c1589951cf4e32e91191f96fe308529a669600d5460405161234991906147d0565b60405180910390a1600d600081548092919061236490614b5b565b919050555050505050565b6000600560008473ffffffffffffffffffffffffffffffffffffffff1673ffffffffffffffffffffffffffffffffffffffff16815260200190815260200160002060008373ffffffffffffffffffffffffffffffffffffffff1673ffffffffffffffffffffffffffffffffffffffff16815260200190815260200160002060009054906101000a900460ff16905092915050565b61240b612685565b73ffffffffffffffffffffffffffffffffffffffff1661242961137d565b73ffffffffffffffffffffffffffffffffffffffff161461247f576040517f08c379a0000000000000000000000000000000000000000000000000000000008152600401612476906146d1565b60405180910390fd5b600073ffffffffffffffffffffffffffffffffffffffff168173ffffffffffffffffffffffffffffffffffffffff1614156124ef576040517f08c379a00000000000000000000000000000000000000000000000000000000081526004016124e690614571565b60405180910390fd5b6124f881612a80565b50565b60006007600083600481111561253a577f4e487b7100000000000000000000000000000000000000000000000000000000600052602160045260246000fd5b6004811115612572577f4e487b7100000000000000000000000000000000000000000000000000000000600052602160045260246000fd5b815260200190815260200160002060009054906101000a900460ff1660ff1660648061259e919061495d565b6125a8919061498e565b9050919050565b60007f01ffc9a7000000000000000000000000000000000000000000000000000000007bffffffffffffffffffffffffffffffffffffffffffffffffffffffff1916827bffffffffffffffffffffffffffffffffffffffffffffffffffffffff1916149050919050565b60008073ffffffffffffffffffffffffffffffffffffffff166002600084815260200190815260200160002060009054906101000a900473ffffffffffffffffffffffffffffffffffffffff1673ffffffffffffffffffffffffffffffffffffffff1614159050919050565b600033905090565b816004600083815260200190815260200160002060006101000a81548173ffffffffffffffffffffffffffffffffffffffff021916908373ffffffffffffffffffffffffffffffffffffffff160217905550808273ffffffffffffffffffffffffffffffffffffffff1661270083610dac565b73ffffffffffffffffffffffffffffffffffffffff167f8c5be1e5ebec7d5bd14f71427d1e84f3dd0314c0f7b2291e5b200ac8c7c3b92560405160405180910390a45050565b600061275182612619565b612790576040517f08c379a0000000000000000000000000000000000000000000000000000000008152600401612787906145f1565b60405180910390fd5b600061279b83610dac565b90508073ffffffffffffffffffffffffffffffffffffffff168473ffffffffffffffffffffffffffffffffffffffff16148061280a57508373ffffffffffffffffffffffffffffffffffffffff166127f28461062d565b73ffffffffffffffffffffffffffffffffffffffff16145b8061281b575061281a818561236f565b5b91505092915050565b8273ffffffffffffffffffffffffffffffffffffffff1661284482610dac565b73ffffffffffffffffffffffffffffffffffffffff161461289a576040517f08c379a0000000000000000000000000000000000000000000000000000000008152600401612891906146f1565b60405180910390fd5b600073ffffffffffffffffffffffffffffffffffffffff168273ffffffffffffffffffffffffffffffffffffffff16141561290a576040517f08c379a0000000000000000000000000000000000000000000000000000000008152600401612901906145b1565b60405180910390fd5b612915838383612d84565b61292060008261268d565b6001600360008573ffffffffffffffffffffffffffffffffffffffff1673ffffffffffffffffffffffffffffffffffffffff168152602001908152602001600020600082825461297091906149e8565b925050819055506001600360008473ffffffffffffffffffffffffffffffffffffffff1673ffffffffffffffffffffffffffffffffffffffff16815260200190815260200160002060008282546129c79190614907565b92505081905550816002600083815260200190815260200160002060006101000a81548173ffffffffffffffffffffffffffffffffffffffff021916908373ffffffffffffffffffffffffffffffffffffffff160217905550808273ffffffffffffffffffffffffffffffffffffffff168473ffffffffffffffffffffffffffffffffffffffff167fddf252ad1be2c89b69c2b068fc378daa952ba7f163c4a11628f55a4df523b3ef60405160405180910390a4505050565b6000600660009054906101000a900473ffffffffffffffffffffffffffffffffffffffff16905081600660006101000a81548173ffffffffffffffffffffffffffffffffffffffff021916908373ffffffffffffffffffffffffffffffffffffffff1602179055508173ffffffffffffffffffffffffffffffffffffffff168173ffffffffffffffffffffffffffffffffffffffff167f8be0079c531659141344cd1fd0a4f28419497f9722a3daafe3b4186f6b6457e060405160405180910390a35050565b612b51848484612824565b612b5d84848484612d89565b612b9c576040517f08c379a0000000000000000000000000000000000000000000000000000000008152600401612b9390614551565b60405180910390fd5b50505050565b606060405180602001604052806000815250905090565b60606000821415612c01576040518060400160405280600181526020017f30000000000000000000000000000000000000000000000000000000000000008152509050612d61565b600082905060005b60008214612c33578080612c1c90614b5b565b915050600a82612c2c919061495d565b9150612c09565b60008167ffffffffffffffff811115612c75577f4e487b7100000000000000000000000000000000000000000000000000000000600052604160045260246000fd5b6040519080825280601f01601f191660200182016040528015612ca75781602001600182028036833780820191505090505b5090505b60008514612d5a57600182612cc091906149e8565b9150600a85612ccf9190614ba4565b6030612cdb9190614907565b60f81b818381518110612d17577f4e487b7100000000000000000000000000000000000000000000000000000000600052603260045260246000fd5b60200101907effffffffffffffffffffffffffffffffffffffffffffffffffffffffffffff1916908160001a905350600a85612d53919061495d565b9450612cab565b8093505050505b919050565b612d80828260405180602001604052806000815250612f20565b5050565b505050565b6000612daa8473ffffffffffffffffffffffffffffffffffffffff16612f7b565b15612f13578373ffffffffffffffffffffffffffffffffffffffff1663150b7a02612dd3612685565b8786866040518563ffffffff1660e01b8152600401612df594939291906144c8565b602060405180830381600087803b158015612e0f57600080fd5b505af1925050508015612e4057506040513d601f19601f82011682018060405250810190612e3d9190613894565b60015b612ec3573d8060008114612e70576040519150601f19603f3d011682016040523d82523d6000602084013e612e75565b606091505b50600081511415612ebb576040517f08c379a0000000000000000000000000000000000000000000000000000000008152600401612eb290614551565b60405180910390fd5b805181602001fd5b63150b7a0260e01b7bffffffffffffffffffffffffffffffffffffffffffffffffffffffff1916817bffffffffffffffffffffffffffffffffffffffffffffffffffffffff191614915050612f18565b600190505b949350505050565b612f2a8383612f8e565b612f376000848484612d89565b612f76576040517f08c379a0000000000000000000000000000000000000000000000000000000008152600401612f6d90614551565b60405180910390fd5b505050565b600080823b905060008111915050919050565b600073ffffffffffffffffffffffffffffffffffffffff168273ffffffffffffffffffffffffffffffffffffffff161415612ffe576040517f08c379a0000000000000000000000000000000000000000000000000000000008152600401612ff590614691565b60405180910390fd5b61300781612619565b15613047576040517f08c379a000000000000000000000000000000000000000000000000000000000815260040161303e90614591565b60405180910390fd5b61305360008383612d84565b6001600360008473ffffffffffffffffffffffffffffffffffffffff1673ffffffffffffffffffffffffffffffffffffffff16815260200190815260200160002060008282546130a39190614907565b92505081905550816002600083815260200190815260200160002060006101000a81548173ffffffffffffffffffffffffffffffffffffffff021916908373ffffffffffffffffffffffffffffffffffffffff160217905550808273ffffffffffffffffffffffffffffffffffffffff16600073ffffffffffffffffffffffffffffffffffffffff167fddf252ad1be2c89b69c2b068fc378daa952ba7f163c4a11628f55a4df523b3ef60405160405180910390a45050565b6040518060a00160405280600060048111156131a1577f4e487b7100000000000000000000000000000000000000000000000000000000600052602160045260246000fd5b815260200160008152602001600060ff168152602001600060ff168152602001600073ffffffffffffffffffffffffffffffffffffffff1681525090565b8280546131eb90614b29565b90600052602060002090601f01602090048101928261320d5760008555613254565b82601f1061322657805160ff1916838001178555613254565b82800160010185558215613254579182015b82811115613253578251825591602001919060010190613238565b5b50905061326191906132c1565b5090565b6040518060a00160405280600081526020016060815260200160608152602001606081526020016132946132de565b81525090565b604051806060016040528060608152602001606081526020016132bb6132de565b81525090565b5b808211156132da5760008160009055506001016132c2565b5090565b60405180606001604052806132f1613311565b81526020016132fe613311565b815260200161330b613384565b81525090565b6040518060a0016040528060006004811115613356577f4e487b7100000000000000000000000000000000000000000000000000000000600052602160045260246000fd5b8152602001600060ff168152602001600060ff168152602001600060ff168152602001600060ff1681525090565b6040518060c001604052806000151581526020016000151581526020016000151581526020016000151581526020016000151581526020016000151581525090565b60006133d96133d484614853565b614822565b9050828152602081018484840111156133f157600080fd5b6133fc848285614ae7565b509392505050565b600061341761341284614883565b614822565b90508281526020810184848401111561342f57600080fd5b61343a848285614ae7565b509392505050565b60008135905061345181614cf9565b92915050565b60008135905061346681614d10565b92915050565b60008135905061347b81614d27565b92915050565b60008151905061349081614d27565b92915050565b600082601f8301126134a757600080fd5b81356134b78482602086016133c6565b91505092915050565b6000813590506134cf81614d3e565b92915050565b6000813590506134e481614d4e565b92915050565b600082601f8301126134fb57600080fd5b813561350b848260208601613404565b91505092915050565b6000610200828403121561352757600080fd5b6135316060614822565b9050600061354184828501613612565b60008301525060a061355584828501613612565b60208301525061014061356a84828501613576565b60408301525092915050565b600060c0828403121561358857600080fd5b61359260c0614822565b905060006135a284828501613457565b60008301525060206135b684828501613457565b60208301525060406135ca84828501613457565b60408301525060606135de84828501613457565b60608301525060806135f284828501613457565b60808301525060a061360684828501613457565b60a08301525092915050565b600060a0828403121561362457600080fd5b61362e60a0614822565b9050600061363e848285016134d5565b6000830152506020613652848285016136af565b6020830152506040613666848285016136af565b604083015250606061367a848285016136af565b606083015250608061368e848285016136af565b60808301525092915050565b6000813590506136a981614d5e565b92915050565b6000813590506136be81614d75565b92915050565b6000602082840312156136d657600080fd5b60006136e484828501613442565b91505092915050565b6000806040838503121561370057600080fd5b600061370e85828601613442565b925050602061371f85828601613442565b9150509250929050565b60008060006060848603121561373e57600080fd5b600061374c86828701613442565b935050602061375d86828701613442565b925050604061376e8682870161369a565b9150509250925092565b6000806000806080858703121561378e57600080fd5b600061379c87828801613442565b94505060206137ad87828801613442565b93505060406137be8782880161369a565b925050606085013567ffffffffffffffff8111156137db57600080fd5b6137e787828801613496565b91505092959194509250565b6000806040838503121561380657600080fd5b600061381485828601613442565b925050602061382585828601613457565b9150509250929050565b6000806040838503121561384257600080fd5b600061385085828601613442565b92505060206138618582860161369a565b9150509250929050565b60006020828403121561387d57600080fd5b600061388b8482850161346c565b91505092915050565b6000602082840312156138a657600080fd5b60006138b484828501613481565b91505092915050565b6000602082840312156138cf57600080fd5b60006138dd848285016134c0565b91505092915050565b600080600080608085870312156138fc57600080fd5b600061390a878288016134c0565b945050602061391b8782880161369a565b935050604061392c878288016136af565b925050606061393d878288016136af565b91505092959194509250565b6000806000610240848603121561395f57600080fd5b600084013567ffffffffffffffff81111561397957600080fd5b613985868287016134ea565b935050602084013567ffffffffffffffff8111156139a257600080fd5b6139ae868287016134ea565b92505060406139bf86828701613514565b9150509250925092565b6000602082840312156139db57600080fd5b60006139e98482850161369a565b91505092915050565b60008060008060006102808688031215613a0b57600080fd5b6000613a198882890161369a565b955050602086013567ffffffffffffffff811115613a3657600080fd5b613a42888289016134ea565b945050604086013567ffffffffffffffff811115613a5f57600080fd5b613a6b888289016134ea565b935050606086013567ffffffffffffffff811115613a8857600080fd5b613a94888289016134ea565b9250506080613aa588828901613514565b9150509295509295909350565b613abb81614a1c565b82525050565b613aca81614a1c565b82525050565b613ad981614a2e565b82525050565b613ae881614a2e565b82525050565b6000613af9826148b3565b613b0381856148c9565b9350613b13818560208601614af6565b613b1c81614cc0565b840191505092915050565b613b3081614ac3565b82525050565b613b3f81614ad5565b82525050565b6000613b50826148be565b613b5a81856148da565b9350613b6a818560208601614af6565b613b7381614cc0565b840191505092915050565b6000613b89826148be565b613b9381856148eb565b9350613ba3818560208601614af6565b613bac81614cc0565b840191505092915050565b6000613bc2826148be565b613bcc81856148fc565b9350613bdc818560208601614af6565b80840191505092915050565b6000613bf56032836148eb565b91507f4552433732313a207472616e7366657220746f206e6f6e20455243373231526560008301527f63656976657220696d706c656d656e74657200000000000000000000000000006020830152604082019050919050565b6000613c5b6026836148eb565b91507f4f776e61626c653a206e6577206f776e657220697320746865207a65726f206160008301527f64647265737300000000000000000000000000000000000000000000000000006020830152604082019050919050565b6000613cc1601c836148eb565b91507f4552433732313a20746f6b656e20616c7265616479206d696e746564000000006000830152602082019050919050565b6000613d016024836148eb565b91507f4552433732313a207472616e7366657220746f20746865207a65726f2061646460008301527f72657373000000000000000000000000000000000000000000000000000000006020830152604082019050919050565b6000613d676019836148eb565b91507f4552433732313a20617070726f766520746f2063616c6c6572000000000000006000830152602082019050919050565b6000613da7602c836148eb565b91507f4552433732313a206f70657261746f7220717565727920666f72206e6f6e657860008301527f697374656e7420746f6b656e00000000000000000000000000000000000000006020830152604082019050919050565b6000613e0d600f836148eb565b91507f4972726567756c6172206f776e657200000000000000000000000000000000006000830152602082019050919050565b6000613e4d6038836148eb565b91507f4552433732313a20617070726f76652063616c6c6572206973206e6f74206f7760008301527f6e6572206e6f7220617070726f76656420666f7220616c6c00000000000000006020830152604082019050919050565b6000613eb3602a836148eb565b91507f4552433732313a2062616c616e636520717565727920666f7220746865207a6560008301527f726f2061646472657373000000000000000000000000000000000000000000006020830152604082019050919050565b6000613f196029836148eb565b91507f4552433732313a206f776e657220717565727920666f72206e6f6e657869737460008301527f656e7420746f6b656e00000000000000000000000000000000000000000000006020830152604082019050919050565b6000613f7f6020836148eb565b91507f4552433732313a206d696e7420746f20746865207a65726f20616464726573736000830152602082019050919050565b6000613fbf602c836148eb565b91507f4552433732313a20617070726f76656420717565727920666f72206e6f6e657860008301527f697374656e7420746f6b656e00000000000000000000000000000000000000006020830152604082019050919050565b60006140256020836148eb565b91507f4f776e61626c653a2063616c6c6572206973206e6f7420746865206f776e65726000830152602082019050919050565b60006140656029836148eb565b91507f4552433732313a207472616e73666572206f6620746f6b656e2074686174206960008301527f73206e6f74206f776e00000000000000000000000000000000000000000000006020830152604082019050919050565b60006140cb602f836148eb565b91507f4552433732314d657461646174613a2055524920717565727920666f72206e6f60008301527f6e6578697374656e7420746f6b656e00000000000000000000000000000000006020830152604082019050919050565b60006141316021836148eb565b91507f4552433732313a20617070726f76616c20746f2063757272656e74206f776e6560008301527f72000000000000000000000000000000000000000000000000000000000000006020830152604082019050919050565b60006141976031836148eb565b91507f4552433732313a207472616e736665722063616c6c6572206973206e6f74206f60008301527f776e6572206e6f7220617070726f7665640000000000000000000000000000006020830152604082019050919050565b6102008201600082015161420760008501826143f4565b50602082015161421a60a08501826143f4565b50604082015161422e610140850182614234565b50505050565b60c08201600082015161424a6000850182613ad0565b50602082015161425d6020850182613ad0565b5060408201516142706040850182613ad0565b5060608201516142836060850182613ad0565b5060808201516142966080850182613ad0565b5060a08201516142a960a0850182613ad0565b50505050565b60a0820160008201516142c56000850182613b27565b5060208201516142d8602085018261445c565b5060408201516142eb604085018261447a565b5060608201516142fe606085018261447a565b5060808201516143116080850182613ab2565b50505050565b600061028083016000830151614330600086018261445c565b50602083015184820360208601526143488282613b45565b915050604083015184820360408601526143628282613b45565b9150506060830151848203606086015261437c8282613b45565b915050608083015161439160808601826141f0565b508091505092915050565b60006102408301600083015184820360008601526143ba8282613b45565b915050602083015184820360208601526143d48282613b45565b91505060408301516143e960408601826141f0565b508091505092915050565b60a08201600082015161440a6000850182613b36565b50602082015161441d602085018261447a565b506040820151614430604085018261447a565b506060820151614443606085018261447a565b506080820151614456608085018261447a565b50505050565b61446581614aac565b82525050565b61447481614aac565b82525050565b61448381614ab6565b82525050565b60006144958285613bb7565b91506144a18284613bb7565b91508190509392505050565b60006020820190506144c26000830184613ac1565b92915050565b60006080820190506144dd6000830187613ac1565b6144ea6020830186613ac1565b6144f7604083018561446b565b81810360608301526145098184613aee565b905095945050505050565b60006020820190506145296000830184613adf565b92915050565b600060208201905081810360008301526145498184613b7e565b905092915050565b6000602082019050818103600083015261456a81613be8565b9050919050565b6000602082019050818103600083015261458a81613c4e565b9050919050565b600060208201905081810360008301526145aa81613cb4565b9050919050565b600060208201905081810360008301526145ca81613cf4565b9050919050565b600060208201905081810360008301526145ea81613d5a565b9050919050565b6000602082019050818103600083015261460a81613d9a565b9050919050565b6000602082019050818103600083015261462a81613e00565b9050919050565b6000602082019050818103600083015261464a81613e40565b9050919050565b6000602082019050818103600083015261466a81613ea6565b9050919050565b6000602082019050818103600083015261468a81613f0c565b9050919050565b600060208201905081810360008301526146aa81613f72565b9050919050565b600060208201905081810360008301526146ca81613fb2565b9050919050565b600060208201905081810360008301526146ea81614018565b9050919050565b6000602082019050818103600083015261470a81614058565b9050919050565b6000602082019050818103600083015261472a816140be565b9050919050565b6000602082019050818103600083015261474a81614124565b9050919050565b6000602082019050818103600083015261476a8161418a565b9050919050565b600060a08201905061478660008301846142af565b92915050565b600060208201905081810360008301526147a68184614317565b905092915050565b600060208201905081810360008301526147c8818461439c565b905092915050565b60006020820190506147e5600083018461446b565b92915050565b6000606082019050614800600083018661446b565b61480d6020830185613ac1565b61481a6040830184613ac1565b949350505050565b6000604051905081810181811067ffffffffffffffff8211171561484957614848614c91565b5b8060405250919050565b600067ffffffffffffffff82111561486e5761486d614c91565b5b601f19601f8301169050602081019050919050565b600067ffffffffffffffff82111561489e5761489d614c91565b5b601f19601f8301169050602081019050919050565b600081519050919050565b600081519050919050565b600082825260208201905092915050565b600082825260208201905092915050565b600082825260208201905092915050565b600081905092915050565b600061491282614aac565b915061491d83614aac565b9250827fffffffffffffffffffffffffffffffffffffffffffffffffffffffffffffffff0382111561495257614951614bd5565b5b828201905092915050565b600061496882614aac565b915061497383614aac565b92508261498357614982614c04565b5b828204905092915050565b600061499982614aac565b91506149a483614aac565b9250817fffffffffffffffffffffffffffffffffffffffffffffffffffffffffffffffff04831182151516156149dd576149dc614bd5565b5b828202905092915050565b60006149f382614aac565b91506149fe83614aac565b925082821015614a1157614a10614bd5565b5b828203905092915050565b6000614a2782614a8c565b9050919050565b60008115159050919050565b60007fffffffff0000000000000000000000000000000000000000000000000000000082169050919050565b6000819050614a7482614cd1565b919050565b6000819050614a8782614ce5565b919050565b600073ffffffffffffffffffffffffffffffffffffffff82169050919050565b6000819050919050565b600060ff82169050919050565b6000614ace82614a66565b9050919050565b6000614ae082614a79565b9050919050565b82818337600083830152505050565b60005b83811015614b14578082015181840152602081019050614af9565b83811115614b23576000848401525b50505050565b60006002820490506001821680614b4157607f821691505b60208210811415614b5557614b54614c62565b5b50919050565b6000614b6682614aac565b91507fffffffffffffffffffffffffffffffffffffffffffffffffffffffffffffffff821415614b9957614b98614bd5565b5b600182019050919050565b6000614baf82614aac565b9150614bba83614aac565b925082614bca57614bc9614c04565b5b828206905092915050565b7f4e487b7100000000000000000000000000000000000000000000000000000000600052601160045260246000fd5b7f4e487b7100000000000000000000000000000000000000000000000000000000600052601260045260246000fd5b7f4e487b7100000000000000000000000000000000000000000000000000000000600052602160045260246000fd5b7f4e487b7100000000000000000000000000000000000000000000000000000000600052602260045260246000fd5b7f4e487b7100000000000000000000000000000000000000000000000000000000600052604160045260246000fd5b6000601f19601f8301169050919050565b60058110614ce257614ce1614c33565b5b50565b60058110614cf657614cf5614c33565b5b50565b614d0281614a1c565b8114614d0d57600080fd5b50565b614d1981614a2e565b8114614d2457600080fd5b50565b614d3081614a3a565b8114614d3b57600080fd5b50565b60058110614d4b57600080fd5b50565b60058110614d5b57600080fd5b50565b614d6781614aac565b8114614d7257600080fd5b50565b614d7e81614ab6565b8114614d8957600080fd5b5056fea264697066735822122011368336755086fafa36fc77e83212ba856bc73705c27a7e99b23908f12af26f64736f6c63430008000033",
  "immutableReferences": {},
  "source": "// SPDX-License-Identifier: MIT\npragma solidity 0.8.0;\n\nimport \"@openzeppelin/contracts/token/ERC721/ERC721.sol\";\nimport \"@openzeppelin/contracts/access/Ownable.sol\";\n\ncontract CrackleRivals is ERC721, Ownable {\n    // Character card type\n    enum CardType {\n        COMMON,\n        EPIC,\n        RARE,\n        LEGENDARY,\n        LIMITED\n    }\n\n    // Hash of cards\n    string constant COMMON_CARD_HASH = \"to-define\";\n    string constant ERPIC_CARD_HASH = \"to-define\";\n    string constant RARE_CARD_HASH = \"to-define\";\n    string constant LEGENDARY_CARD_HASH = \"to-define\";\n    string constant LIMITED_CARD_HASH = \"to-define\";\n\n    // Card distribution\n    uint256 constant CHARACTER_CARD_MAX_SUPPLY = 100;\n    mapping(CardType => uint8) _cardsSupply;\n\n    /*\n     ** attributes\n     */\n    // Amplifier => Same value plus every round\n    // Reducer => Same value min. every round\n    // W_Round => Win current round bonus for next round\n    // L_Round => Lose current round bonus for next round\n    // TOT_ATK => When Totale Attack count is more than a certain limit\n    enum ModifierLife {\n        AMPLIFIER,\n        REDUCER,\n        W_ROUND,\n        L_ROUND,\n        TOT_ATK\n    }\n\n    struct Modifier {\n        ModifierLife modifierLife;\n        uint8 attack;\n        uint8 damage;\n        uint8 energy;\n        uint8 health;\n    }\n\n    /*\n     ** Skill => Block skill\n     ** Ability => Block ability\n     */\n    struct Blocker {\n        bool skill;\n        bool ability;\n        bool attackModifier;\n        bool damageModifier;\n        bool energyModifier;\n        bool healthModifier;\n    }\n\n    // Self modifier => positive\n    // Rival modifier => negative\n    struct Attribute {\n        Modifier selfModifier;\n        Modifier rivalModifier;\n        Blocker blocks;\n    }\n    /*\n     ** end attributes\n     */\n\n    struct Clan {\n        string name;\n        string description;\n        Attribute skill;\n    }\n\n    struct Character {\n        uint256 clanId;\n        string name;\n        string description;\n        string hash;\n        Attribute ability;\n    }\n\n    struct CharacterCard {\n        CardType cardType;\n        uint256 characterId;\n        uint8 attack;\n        uint8 damage;\n        address owner;\n    }\n\n    mapping(uint256 => Clan) private _clans;\n    uint256 nextClanId = 0;\n\n    mapping(uint256 => Character) private _characters;\n    uint256 nextCharacterId = 0;\n\n    mapping(uint256 => CharacterCard) private _characterCards;\n    uint256 nextCharacterCardId = 0;\n\n    constructor() ERC721(\"Crackle Rivals\", \"CKL\") {\n        _cardsSupply[CardType.EPIC] = 45;\n        _cardsSupply[CardType.RARE] = 35;\n        _cardsSupply[CardType.LEGENDARY] = 15;\n        _cardsSupply[CardType.LIMITED] = 5;\n    }\n\n    function mintClan(\n        string memory name,\n        string memory description,\n        Attribute memory skill\n    ) public onlyOwner {\n        _clans[nextClanId] = Clan(name, description, skill);\n        emit ClanMinted(nextClanId);\n\n        nextClanId++;\n    }\n\n    function mintCharacter(\n        uint256 clanId,\n        string memory name,\n        string memory description,\n        string memory hash,\n        Attribute memory ability\n    ) public onlyOwner {\n        _characters[nextCharacterId] = Character(\n            clanId,\n            name,\n            description,\n            hash,\n            ability\n        );\n        emit CharacterMinted(nextCharacterId);\n\n        nextCharacterId++;\n    }\n\n    function mintCard(\n        CardType cardType,\n        uint256 characterId,\n        uint8 attack,\n        uint8 damage\n    ) public onlyOwner {\n        _characterCards[nextCharacterCardId] = CharacterCard(\n            cardType,\n            characterId,\n            attack,\n            damage,\n            msg.sender\n        );\n\n        // Mint card\n        _safeMint(msg.sender, nextCharacterCardId);\n        emit CharacterCardMinted(nextCharacterCardId);\n\n        nextCharacterCardId++;\n    }\n\n    function transferCard(address to, uint256 characterCardId) public {\n        require(\n            _characterCards[characterCardId].owner == msg.sender,\n            \"Irregular owner\"\n        );\n\n        _transfer(msg.sender, to, characterCardId);\n        _characterCards[characterCardId].owner = msg.sender;\n\n        emit CharacterCardTransfered(characterCardId, msg.sender, to);\n    }\n\n    function getClan(uint256 clanId) public view returns (Clan memory) {\n        return _clans[clanId];\n    }\n\n    function getCharacter(uint256 characterId)\n        public\n        view\n        returns (Character memory)\n    {\n        return _characters[characterId];\n    }\n\n    function getCharacterCard(uint256 characterCardId)\n        public\n        view\n        returns (CharacterCard memory)\n    {\n        return _characterCards[characterCardId];\n    }\n\n    function getCardTypeMaxSupply(CardType cardType)\n        public\n        view\n        returns (uint256)\n    {\n        return (CHARACTER_CARD_MAX_SUPPLY / 100) * _cardsSupply[cardType];\n    }\n\n    /*\n    Events\n    */\n    event ClanMinted(uint256 clanId);\n    event CharacterMinted(uint256 characterId);\n    event CharacterCardMinted(uint256 characterCardId);\n    event CharacterCardTransfered(\n        uint256 characterCardId,\n        address oldOwner,\n        address newOwner\n    );\n}\n",
  "sourcePath": "/Users/lzoli/ForkHome/dapp-collectible-cards/contracts/CrackleRivals.sol",
  "compiler": {
    "name": "solc",
    "version": "0.8.0+commit.c7dfd78e.Emscripten.clang"
  },
  "schemaVersion": "3.4.3",
  "updatedAt": "2021-09-26T08:34:44.510Z",
  "networkType": "ethereum",
  "devdoc": {
    "kind": "dev",
    "methods": {
      "approve(address,uint256)": {
        "details": "See {IERC721-approve}."
      },
      "balanceOf(address)": {
        "details": "See {IERC721-balanceOf}."
      },
      "getApproved(uint256)": {
        "details": "See {IERC721-getApproved}."
      },
      "isApprovedForAll(address,address)": {
        "details": "See {IERC721-isApprovedForAll}."
      },
      "name()": {
        "details": "See {IERC721Metadata-name}."
      },
      "owner()": {
        "details": "Returns the address of the current owner."
      },
      "ownerOf(uint256)": {
        "details": "See {IERC721-ownerOf}."
      },
      "renounceOwnership()": {
        "details": "Leaves the contract without owner. It will not be possible to call `onlyOwner` functions anymore. Can only be called by the current owner. NOTE: Renouncing ownership will leave the contract without an owner, thereby removing any functionality that is only available to the owner."
      },
      "safeTransferFrom(address,address,uint256)": {
        "details": "See {IERC721-safeTransferFrom}."
      },
      "safeTransferFrom(address,address,uint256,bytes)": {
        "details": "See {IERC721-safeTransferFrom}."
      },
      "setApprovalForAll(address,bool)": {
        "details": "See {IERC721-setApprovalForAll}."
      },
      "supportsInterface(bytes4)": {
        "details": "See {IERC165-supportsInterface}."
      },
      "symbol()": {
        "details": "See {IERC721Metadata-symbol}."
      },
      "tokenURI(uint256)": {
        "details": "See {IERC721Metadata-tokenURI}."
      },
      "transferFrom(address,address,uint256)": {
        "details": "See {IERC721-transferFrom}."
      },
      "transferOwnership(address)": {
        "details": "Transfers ownership of the contract to a new account (`newOwner`). Can only be called by the current owner."
      }
    },
    "version": 1
  },
  "userdoc": {
    "kind": "user",
    "methods": {},
    "version": 1
  }
}