{
  "contractName": "CrackleRivals",
  "abi": [
    {
      "inputs": [],
      "stateMutability": "nonpayable",
      "type": "constructor"
    },
    {
      "anonymous": false,
      "inputs": [
        {
          "indexed": true,
          "internalType": "address",
          "name": "owner",
          "type": "address"
        },
        {
          "indexed": true,
          "internalType": "address",
          "name": "approved",
          "type": "address"
        },
        {
          "indexed": true,
          "internalType": "uint256",
          "name": "tokenId",
          "type": "uint256"
        }
      ],
      "name": "Approval",
      "type": "event"
    },
    {
      "anonymous": false,
      "inputs": [
        {
          "indexed": true,
          "internalType": "address",
          "name": "owner",
          "type": "address"
        },
        {
          "indexed": true,
          "internalType": "address",
          "name": "operator",
          "type": "address"
        },
        {
          "indexed": false,
          "internalType": "bool",
          "name": "approved",
          "type": "bool"
        }
      ],
      "name": "ApprovalForAll",
      "type": "event"
    },
    {
      "anonymous": false,
      "inputs": [
        {
          "indexed": false,
          "internalType": "uint256",
          "name": "characterCardId",
          "type": "uint256"
        }
      ],
      "name": "CharacterCardMinted",
      "type": "event"
    },
    {
      "anonymous": false,
      "inputs": [
        {
          "indexed": false,
          "internalType": "uint256",
          "name": "characterCardId",
          "type": "uint256"
        },
        {
          "indexed": false,
          "internalType": "address",
          "name": "oldOwner",
          "type": "address"
        },
        {
          "indexed": false,
          "internalType": "address",
          "name": "newOwner",
          "type": "address"
        }
      ],
      "name": "CharacterCardTransfered",
      "type": "event"
    },
    {
      "anonymous": false,
      "inputs": [
        {
          "indexed": false,
          "internalType": "uint256",
          "name": "characterId",
          "type": "uint256"
        }
      ],
      "name": "CharacterMinted",
      "type": "event"
    },
    {
      "anonymous": false,
      "inputs": [
        {
          "indexed": false,
          "internalType": "uint256",
          "name": "clanId",
          "type": "uint256"
        }
      ],
      "name": "ClanMinted",
      "type": "event"
    },
    {
      "anonymous": false,
      "inputs": [
        {
          "indexed": true,
          "internalType": "address",
          "name": "previousOwner",
          "type": "address"
        },
        {
          "indexed": true,
          "internalType": "address",
          "name": "newOwner",
          "type": "address"
        }
      ],
      "name": "OwnershipTransferred",
      "type": "event"
    },
    {
      "anonymous": false,
      "inputs": [
        {
          "indexed": true,
          "internalType": "address",
          "name": "from",
          "type": "address"
        },
        {
          "indexed": true,
          "internalType": "address",
          "name": "to",
          "type": "address"
        },
        {
          "indexed": true,
          "internalType": "uint256",
          "name": "tokenId",
          "type": "uint256"
        }
      ],
      "name": "Transfer",
      "type": "event"
    },
    {
      "inputs": [
        {
          "internalType": "address",
          "name": "to",
          "type": "address"
        },
        {
          "internalType": "uint256",
          "name": "tokenId",
          "type": "uint256"
        }
      ],
      "name": "approve",
      "outputs": [],
      "stateMutability": "nonpayable",
      "type": "function"
    },
    {
      "inputs": [
        {
          "internalType": "address",
          "name": "owner",
          "type": "address"
        }
      ],
      "name": "balanceOf",
      "outputs": [
        {
          "internalType": "uint256",
          "name": "",
          "type": "uint256"
        }
      ],
      "stateMutability": "view",
      "type": "function",
      "constant": true
    },
    {
      "inputs": [
        {
          "internalType": "uint256",
          "name": "tokenId",
          "type": "uint256"
        }
      ],
      "name": "getApproved",
      "outputs": [
        {
          "internalType": "address",
          "name": "",
          "type": "address"
        }
      ],
      "stateMutability": "view",
      "type": "function",
      "constant": true
    },
    {
      "inputs": [
        {
          "internalType": "address",
          "name": "owner",
          "type": "address"
        },
        {
          "internalType": "address",
          "name": "operator",
          "type": "address"
        }
      ],
      "name": "isApprovedForAll",
      "outputs": [
        {
          "internalType": "bool",
          "name": "",
          "type": "bool"
        }
      ],
      "stateMutability": "view",
      "type": "function",
      "constant": true
    },
    {
      "inputs": [],
      "name": "name",
      "outputs": [
        {
          "internalType": "string",
          "name": "",
          "type": "string"
        }
      ],
      "stateMutability": "view",
      "type": "function",
      "constant": true
    },
    {
      "inputs": [],
      "name": "owner",
      "outputs": [
        {
          "internalType": "address",
          "name": "",
          "type": "address"
        }
      ],
      "stateMutability": "view",
      "type": "function",
      "constant": true
    },
    {
      "inputs": [
        {
          "internalType": "uint256",
          "name": "tokenId",
          "type": "uint256"
        }
      ],
      "name": "ownerOf",
      "outputs": [
        {
          "internalType": "address",
          "name": "",
          "type": "address"
        }
      ],
      "stateMutability": "view",
      "type": "function",
      "constant": true
    },
    {
      "inputs": [],
      "name": "renounceOwnership",
      "outputs": [],
      "stateMutability": "nonpayable",
      "type": "function"
    },
    {
      "inputs": [
        {
          "internalType": "address",
          "name": "from",
          "type": "address"
        },
        {
          "internalType": "address",
          "name": "to",
          "type": "address"
        },
        {
          "internalType": "uint256",
          "name": "tokenId",
          "type": "uint256"
        }
      ],
      "name": "safeTransferFrom",
      "outputs": [],
      "stateMutability": "nonpayable",
      "type": "function"
    },
    {
      "inputs": [
        {
          "internalType": "address",
          "name": "from",
          "type": "address"
        },
        {
          "internalType": "address",
          "name": "to",
          "type": "address"
        },
        {
          "internalType": "uint256",
          "name": "tokenId",
          "type": "uint256"
        },
        {
          "internalType": "bytes",
          "name": "_data",
          "type": "bytes"
        }
      ],
      "name": "safeTransferFrom",
      "outputs": [],
      "stateMutability": "nonpayable",
      "type": "function"
    },
    {
      "inputs": [
        {
          "internalType": "address",
          "name": "operator",
          "type": "address"
        },
        {
          "internalType": "bool",
          "name": "approved",
          "type": "bool"
        }
      ],
      "name": "setApprovalForAll",
      "outputs": [],
      "stateMutability": "nonpayable",
      "type": "function"
    },
    {
      "inputs": [
        {
          "internalType": "bytes4",
          "name": "interfaceId",
          "type": "bytes4"
        }
      ],
      "name": "supportsInterface",
      "outputs": [
        {
          "internalType": "bool",
          "name": "",
          "type": "bool"
        }
      ],
      "stateMutability": "view",
      "type": "function",
      "constant": true
    },
    {
      "inputs": [],
      "name": "symbol",
      "outputs": [
        {
          "internalType": "string",
          "name": "",
          "type": "string"
        }
      ],
      "stateMutability": "view",
      "type": "function",
      "constant": true
    },
    {
      "inputs": [
        {
          "internalType": "uint256",
          "name": "tokenId",
          "type": "uint256"
        }
      ],
      "name": "tokenURI",
      "outputs": [
        {
          "internalType": "string",
          "name": "",
          "type": "string"
        }
      ],
      "stateMutability": "view",
      "type": "function",
      "constant": true
    },
    {
      "inputs": [
        {
          "internalType": "address",
          "name": "from",
          "type": "address"
        },
        {
          "internalType": "address",
          "name": "to",
          "type": "address"
        },
        {
          "internalType": "uint256",
          "name": "tokenId",
          "type": "uint256"
        }
      ],
      "name": "transferFrom",
      "outputs": [],
      "stateMutability": "nonpayable",
      "type": "function"
    },
    {
      "inputs": [
        {
          "internalType": "address",
          "name": "newOwner",
          "type": "address"
        }
      ],
      "name": "transferOwnership",
      "outputs": [],
      "stateMutability": "nonpayable",
      "type": "function"
    },
    {
      "inputs": [
        {
          "internalType": "string",
          "name": "name",
          "type": "string"
        },
        {
          "internalType": "string",
          "name": "description",
          "type": "string"
        },
        {
          "components": [
            {
              "components": [
                {
                  "internalType": "enum CrackleRivals.ModifierLife",
                  "name": "modifierLife",
                  "type": "uint8"
                },
                {
                  "internalType": "uint8",
                  "name": "attack",
                  "type": "uint8"
                },
                {
                  "internalType": "uint8",
                  "name": "damage",
                  "type": "uint8"
                },
                {
                  "internalType": "uint8",
                  "name": "energy",
                  "type": "uint8"
                },
                {
                  "internalType": "uint8",
                  "name": "health",
                  "type": "uint8"
                }
              ],
              "internalType": "struct CrackleRivals.Modifier",
              "name": "selfModifier",
              "type": "tuple"
            },
            {
              "components": [
                {
                  "internalType": "enum CrackleRivals.ModifierLife",
                  "name": "modifierLife",
                  "type": "uint8"
                },
                {
                  "internalType": "uint8",
                  "name": "attack",
                  "type": "uint8"
                },
                {
                  "internalType": "uint8",
                  "name": "damage",
                  "type": "uint8"
                },
                {
                  "internalType": "uint8",
                  "name": "energy",
                  "type": "uint8"
                },
                {
                  "internalType": "uint8",
                  "name": "health",
                  "type": "uint8"
                }
              ],
              "internalType": "struct CrackleRivals.Modifier",
              "name": "rivalModifier",
              "type": "tuple"
            },
            {
              "components": [
                {
                  "internalType": "bool",
                  "name": "skill",
                  "type": "bool"
                },
                {
                  "internalType": "bool",
                  "name": "ability",
                  "type": "bool"
                },
                {
                  "internalType": "bool",
                  "name": "attackModifier",
                  "type": "bool"
                },
                {
                  "internalType": "bool",
                  "name": "damageModifier",
                  "type": "bool"
                },
                {
                  "internalType": "bool",
                  "name": "energyModifier",
                  "type": "bool"
                },
                {
                  "internalType": "bool",
                  "name": "healthModifier",
                  "type": "bool"
                }
              ],
              "internalType": "struct CrackleRivals.Blocker",
              "name": "blocks",
              "type": "tuple"
            }
          ],
          "internalType": "struct CrackleRivals.Attribute",
          "name": "skill",
          "type": "tuple"
        }
      ],
      "name": "mintClan",
      "outputs": [],
      "stateMutability": "nonpayable",
      "type": "function"
    },
    {
      "inputs": [
        {
          "internalType": "uint256",
          "name": "clanId",
          "type": "uint256"
        },
        {
          "internalType": "string",
          "name": "name",
          "type": "string"
        },
        {
          "internalType": "string",
          "name": "description",
          "type": "string"
        },
        {
          "internalType": "string",
          "name": "hash",
          "type": "string"
        },
        {
          "internalType": "uint8",
          "name": "attack",
          "type": "uint8"
        },
        {
          "internalType": "uint8",
          "name": "damage",
          "type": "uint8"
        }
      ],
      "name": "mintCharacter",
      "outputs": [],
      "stateMutability": "nonpayable",
      "type": "function"
    },
    {
      "inputs": [
        {
          "internalType": "enum CrackleRivals.CardType",
          "name": "cardType",
          "type": "uint8"
        },
        {
          "internalType": "uint256",
          "name": "characterId",
          "type": "uint256"
        },
        {
          "components": [
            {
              "components": [
                {
                  "internalType": "enum CrackleRivals.ModifierLife",
                  "name": "modifierLife",
                  "type": "uint8"
                },
                {
                  "internalType": "uint8",
                  "name": "attack",
                  "type": "uint8"
                },
                {
                  "internalType": "uint8",
                  "name": "damage",
                  "type": "uint8"
                },
                {
                  "internalType": "uint8",
                  "name": "energy",
                  "type": "uint8"
                },
                {
                  "internalType": "uint8",
                  "name": "health",
                  "type": "uint8"
                }
              ],
              "internalType": "struct CrackleRivals.Modifier",
              "name": "selfModifier",
              "type": "tuple"
            },
            {
              "components": [
                {
                  "internalType": "enum CrackleRivals.ModifierLife",
                  "name": "modifierLife",
                  "type": "uint8"
                },
                {
                  "internalType": "uint8",
                  "name": "attack",
                  "type": "uint8"
                },
                {
                  "internalType": "uint8",
                  "name": "damage",
                  "type": "uint8"
                },
                {
                  "internalType": "uint8",
                  "name": "energy",
                  "type": "uint8"
                },
                {
                  "internalType": "uint8",
                  "name": "health",
                  "type": "uint8"
                }
              ],
              "internalType": "struct CrackleRivals.Modifier",
              "name": "rivalModifier",
              "type": "tuple"
            },
            {
              "components": [
                {
                  "internalType": "bool",
                  "name": "skill",
                  "type": "bool"
                },
                {
                  "internalType": "bool",
                  "name": "ability",
                  "type": "bool"
                },
                {
                  "internalType": "bool",
                  "name": "attackModifier",
                  "type": "bool"
                },
                {
                  "internalType": "bool",
                  "name": "damageModifier",
                  "type": "bool"
                },
                {
                  "internalType": "bool",
                  "name": "energyModifier",
                  "type": "bool"
                },
                {
                  "internalType": "bool",
                  "name": "healthModifier",
                  "type": "bool"
                }
              ],
              "internalType": "struct CrackleRivals.Blocker",
              "name": "blocks",
              "type": "tuple"
            }
          ],
          "internalType": "struct CrackleRivals.Attribute",
          "name": "ability",
          "type": "tuple"
        }
      ],
      "name": "mintCard",
      "outputs": [],
      "stateMutability": "nonpayable",
      "type": "function"
    },
    {
      "inputs": [
        {
          "internalType": "address",
          "name": "to",
          "type": "address"
        },
        {
          "internalType": "uint256",
          "name": "characterCardId",
          "type": "uint256"
        }
      ],
      "name": "transferCard",
      "outputs": [],
      "stateMutability": "nonpayable",
      "type": "function"
    },
    {
      "inputs": [
        {
          "internalType": "uint256",
          "name": "clanId",
          "type": "uint256"
        }
      ],
      "name": "getClan",
      "outputs": [
        {
          "components": [
            {
              "internalType": "string",
              "name": "name",
              "type": "string"
            },
            {
              "internalType": "string",
              "name": "description",
              "type": "string"
            },
            {
              "components": [
                {
                  "components": [
                    {
                      "internalType": "enum CrackleRivals.ModifierLife",
                      "name": "modifierLife",
                      "type": "uint8"
                    },
                    {
                      "internalType": "uint8",
                      "name": "attack",
                      "type": "uint8"
                    },
                    {
                      "internalType": "uint8",
                      "name": "damage",
                      "type": "uint8"
                    },
                    {
                      "internalType": "uint8",
                      "name": "energy",
                      "type": "uint8"
                    },
                    {
                      "internalType": "uint8",
                      "name": "health",
                      "type": "uint8"
                    }
                  ],
                  "internalType": "struct CrackleRivals.Modifier",
                  "name": "selfModifier",
                  "type": "tuple"
                },
                {
                  "components": [
                    {
                      "internalType": "enum CrackleRivals.ModifierLife",
                      "name": "modifierLife",
                      "type": "uint8"
                    },
                    {
                      "internalType": "uint8",
                      "name": "attack",
                      "type": "uint8"
                    },
                    {
                      "internalType": "uint8",
                      "name": "damage",
                      "type": "uint8"
                    },
                    {
                      "internalType": "uint8",
                      "name": "energy",
                      "type": "uint8"
                    },
                    {
                      "internalType": "uint8",
                      "name": "health",
                      "type": "uint8"
                    }
                  ],
                  "internalType": "struct CrackleRivals.Modifier",
                  "name": "rivalModifier",
                  "type": "tuple"
                },
                {
                  "components": [
                    {
                      "internalType": "bool",
                      "name": "skill",
                      "type": "bool"
                    },
                    {
                      "internalType": "bool",
                      "name": "ability",
                      "type": "bool"
                    },
                    {
                      "internalType": "bool",
                      "name": "attackModifier",
                      "type": "bool"
                    },
                    {
                      "internalType": "bool",
                      "name": "damageModifier",
                      "type": "bool"
                    },
                    {
                      "internalType": "bool",
                      "name": "energyModifier",
                      "type": "bool"
                    },
                    {
                      "internalType": "bool",
                      "name": "healthModifier",
                      "type": "bool"
                    }
                  ],
                  "internalType": "struct CrackleRivals.Blocker",
                  "name": "blocks",
                  "type": "tuple"
                }
              ],
              "internalType": "struct CrackleRivals.Attribute",
              "name": "skill",
              "type": "tuple"
            }
          ],
          "internalType": "struct CrackleRivals.Clan",
          "name": "",
          "type": "tuple"
        }
      ],
      "stateMutability": "view",
      "type": "function",
      "constant": true
    },
    {
      "inputs": [
        {
          "internalType": "uint256",
          "name": "characterId",
          "type": "uint256"
        }
      ],
      "name": "getCharacter",
      "outputs": [
        {
          "components": [
            {
              "internalType": "uint256",
              "name": "clanId",
              "type": "uint256"
            },
            {
              "internalType": "string",
              "name": "name",
              "type": "string"
            },
            {
              "internalType": "string",
              "name": "description",
              "type": "string"
            },
            {
              "internalType": "string",
              "name": "hash",
              "type": "string"
            },
            {
              "internalType": "uint8",
              "name": "attack",
              "type": "uint8"
            },
            {
              "internalType": "uint8",
              "name": "damage",
              "type": "uint8"
            }
          ],
          "internalType": "struct CrackleRivals.Character",
          "name": "",
          "type": "tuple"
        }
      ],
      "stateMutability": "view",
      "type": "function",
      "constant": true
    },
    {
      "inputs": [
        {
          "internalType": "uint256",
          "name": "characterCardId",
          "type": "uint256"
        }
      ],
      "name": "getCharacterCardById",
      "outputs": [
        {
          "components": [
            {
              "internalType": "enum CrackleRivals.CardType",
              "name": "cardType",
              "type": "uint8"
            },
            {
              "internalType": "uint256",
              "name": "characterId",
              "type": "uint256"
            },
            {
              "components": [
                {
                  "components": [
                    {
                      "internalType": "enum CrackleRivals.ModifierLife",
                      "name": "modifierLife",
                      "type": "uint8"
                    },
                    {
                      "internalType": "uint8",
                      "name": "attack",
                      "type": "uint8"
                    },
                    {
                      "internalType": "uint8",
                      "name": "damage",
                      "type": "uint8"
                    },
                    {
                      "internalType": "uint8",
                      "name": "energy",
                      "type": "uint8"
                    },
                    {
                      "internalType": "uint8",
                      "name": "health",
                      "type": "uint8"
                    }
                  ],
                  "internalType": "struct CrackleRivals.Modifier",
                  "name": "selfModifier",
                  "type": "tuple"
                },
                {
                  "components": [
                    {
                      "internalType": "enum CrackleRivals.ModifierLife",
                      "name": "modifierLife",
                      "type": "uint8"
                    },
                    {
                      "internalType": "uint8",
                      "name": "attack",
                      "type": "uint8"
                    },
                    {
                      "internalType": "uint8",
                      "name": "damage",
                      "type": "uint8"
                    },
                    {
                      "internalType": "uint8",
                      "name": "energy",
                      "type": "uint8"
                    },
                    {
                      "internalType": "uint8",
                      "name": "health",
                      "type": "uint8"
                    }
                  ],
                  "internalType": "struct CrackleRivals.Modifier",
                  "name": "rivalModifier",
                  "type": "tuple"
                },
                {
                  "components": [
                    {
                      "internalType": "bool",
                      "name": "skill",
                      "type": "bool"
                    },
                    {
                      "internalType": "bool",
                      "name": "ability",
                      "type": "bool"
                    },
                    {
                      "internalType": "bool",
                      "name": "attackModifier",
                      "type": "bool"
                    },
                    {
                      "internalType": "bool",
                      "name": "damageModifier",
                      "type": "bool"
                    },
                    {
                      "internalType": "bool",
                      "name": "energyModifier",
                      "type": "bool"
                    },
                    {
                      "internalType": "bool",
                      "name": "healthModifier",
                      "type": "bool"
                    }
                  ],
                  "internalType": "struct CrackleRivals.Blocker",
                  "name": "blocks",
                  "type": "tuple"
                }
              ],
              "internalType": "struct CrackleRivals.Attribute",
              "name": "ability",
              "type": "tuple"
            },
            {
              "internalType": "address",
              "name": "owner",
              "type": "address"
            }
          ],
          "internalType": "struct CrackleRivals.CharacterCard",
          "name": "",
          "type": "tuple"
        }
      ],
      "stateMutability": "view",
      "type": "function",
      "constant": true
    },
    {
      "inputs": [
        {
          "internalType": "uint256",
          "name": "characterId",
          "type": "uint256"
        },
        {
          "internalType": "uint8",
          "name": "limit",
          "type": "uint8"
        }
      ],
      "name": "getCardsByCharacter",
      "outputs": [
        {
          "components": [
            {
              "internalType": "enum CrackleRivals.CardType",
              "name": "cardType",
              "type": "uint8"
            },
            {
              "internalType": "uint256",
              "name": "characterId",
              "type": "uint256"
            },
            {
              "components": [
                {
                  "components": [
                    {
                      "internalType": "enum CrackleRivals.ModifierLife",
                      "name": "modifierLife",
                      "type": "uint8"
                    },
                    {
                      "internalType": "uint8",
                      "name": "attack",
                      "type": "uint8"
                    },
                    {
                      "internalType": "uint8",
                      "name": "damage",
                      "type": "uint8"
                    },
                    {
                      "internalType": "uint8",
                      "name": "energy",
                      "type": "uint8"
                    },
                    {
                      "internalType": "uint8",
                      "name": "health",
                      "type": "uint8"
                    }
                  ],
                  "internalType": "struct CrackleRivals.Modifier",
                  "name": "selfModifier",
                  "type": "tuple"
                },
                {
                  "components": [
                    {
                      "internalType": "enum CrackleRivals.ModifierLife",
                      "name": "modifierLife",
                      "type": "uint8"
                    },
                    {
                      "internalType": "uint8",
                      "name": "attack",
                      "type": "uint8"
                    },
                    {
                      "internalType": "uint8",
                      "name": "damage",
                      "type": "uint8"
                    },
                    {
                      "internalType": "uint8",
                      "name": "energy",
                      "type": "uint8"
                    },
                    {
                      "internalType": "uint8",
                      "name": "health",
                      "type": "uint8"
                    }
                  ],
                  "internalType": "struct CrackleRivals.Modifier",
                  "name": "rivalModifier",
                  "type": "tuple"
                },
                {
                  "components": [
                    {
                      "internalType": "bool",
                      "name": "skill",
                      "type": "bool"
                    },
                    {
                      "internalType": "bool",
                      "name": "ability",
                      "type": "bool"
                    },
                    {
                      "internalType": "bool",
                      "name": "attackModifier",
                      "type": "bool"
                    },
                    {
                      "internalType": "bool",
                      "name": "damageModifier",
                      "type": "bool"
                    },
                    {
                      "internalType": "bool",
                      "name": "energyModifier",
                      "type": "bool"
                    },
                    {
                      "internalType": "bool",
                      "name": "healthModifier",
                      "type": "bool"
                    }
                  ],
                  "internalType": "struct CrackleRivals.Blocker",
                  "name": "blocks",
                  "type": "tuple"
                }
              ],
              "internalType": "struct CrackleRivals.Attribute",
              "name": "ability",
              "type": "tuple"
            },
            {
              "internalType": "address",
              "name": "owner",
              "type": "address"
            }
          ],
          "internalType": "struct CrackleRivals.CharacterCard[]",
          "name": "",
          "type": "tuple[]"
        }
      ],
      "stateMutability": "view",
      "type": "function",
      "constant": true
    },
    {
      "inputs": [],
      "name": "getCardMaxSupply",
      "outputs": [
        {
          "internalType": "uint8",
          "name": "",
          "type": "uint8"
        }
      ],
      "stateMutability": "view",
      "type": "function",
      "constant": true
    },
    {
      "inputs": [
        {
          "internalType": "enum CrackleRivals.CardType",
          "name": "cardType",
          "type": "uint8"
        }
      ],
      "name": "getCardTypeMaxSupply",
      "outputs": [
        {
          "internalType": "uint8",
          "name": "",
          "type": "uint8"
        }
      ],
      "stateMutability": "view",
      "type": "function",
      "constant": true
    }
  ],
  "bytecode": "0x608060405260006009556000600b556000600d553480156200002057600080fd5b506040518060400160405280600e81526020017f437261636b6c6520526976616c730000000000000000000000000000000000008152506040518060400160405280600381526020017f434b4c00000000000000000000000000000000000000000000000000000000008152508160009080519060200190620000a592919062000434565b508060019080519060200190620000be92919062000434565b505050620000e1620000d56200036660201b60201c565b6200036e60201b60201c565b602d600760006001600481111562000122577f4e487b7100000000000000000000000000000000000000000000000000000000600052602160045260246000fd5b60048111156200015b577f4e487b7100000000000000000000000000000000000000000000000000000000600052602160045260246000fd5b815260200190815260200160002060006101000a81548160ff021916908360ff16021790555060236007600060026004811115620001c2577f4e487b7100000000000000000000000000000000000000000000000000000000600052602160045260246000fd5b6004811115620001fb577f4e487b7100000000000000000000000000000000000000000000000000000000600052602160045260246000fd5b815260200190815260200160002060006101000a81548160ff021916908360ff160217905550600f600760006003600481111562000262577f4e487b7100000000000000000000000000000000000000000000000000000000600052602160045260246000fd5b60048111156200029b577f4e487b7100000000000000000000000000000000000000000000000000000000600052602160045260246000fd5b815260200190815260200160002060006101000a81548160ff021916908360ff16021790555060056007600060048081111562000301577f4e487b7100000000000000000000000000000000000000000000000000000000600052602160045260246000fd5b60048111156200033a577f4e487b7100000000000000000000000000000000000000000000000000000000600052602160045260246000fd5b815260200190815260200160002060006101000a81548160ff021916908360ff16021790555062000549565b600033905090565b6000600660009054906101000a900473ffffffffffffffffffffffffffffffffffffffff16905081600660006101000a81548173ffffffffffffffffffffffffffffffffffffffff021916908373ffffffffffffffffffffffffffffffffffffffff1602179055508173ffffffffffffffffffffffffffffffffffffffff168173ffffffffffffffffffffffffffffffffffffffff167f8be0079c531659141344cd1fd0a4f28419497f9722a3daafe3b4186f6b6457e060405160405180910390a35050565b8280546200044290620004e4565b90600052602060002090601f016020900481019282620004665760008555620004b2565b82601f106200048157805160ff1916838001178555620004b2565b82800160010185558215620004b2579182015b82811115620004b157825182559160200191906001019062000494565b5b509050620004c19190620004c5565b5090565b5b80821115620004e0576000816000905550600101620004c6565b5090565b60006002820490506001821680620004fd57607f821691505b602082108114156200051457620005136200051a565b5b50919050565b7f4e487b7100000000000000000000000000000000000000000000000000000000600052602260045260246000fd5b61554880620005596000396000f3fe608060405234801561001057600080fd5b506004361061018d5760003560e01c8063715018a6116100de578063b88d4fde11610097578063e0cc3eb611610071578063e0cc3eb614610490578063e985e9c5146104c0578063f2fde38b146104f0578063ff4a84991461050c5761018d565b8063b88d4fde14610414578063c87b56dd14610430578063dabb0531146104605761018d565b8063715018a61461037a578063771dd25a146103845780638da5cb5b146103a057806395d89b41146103be5780639b81a359146103dc578063a22cb465146103f85761018d565b8063095ea7b31161014b57806342842e0e1161012557806342842e0e146102ce5780636333b11d146102ea5780636352211e1461031a57806370a082311461034a5761018d565b8063095ea7b31461027a5780630acf51411461029657806323b872dd146102b25761018d565b80625534411461019257806301ffc9a7146101b057806304743b12146101e057806306fdde0314610210578063075fe6f71461022e578063081812fc1461024a575b600080fd5b61019a61053c565b6040516101a79190614f18565b60405180910390f35b6101ca60048036038101906101c59190613e26565b610545565b6040516101d79190614c09565b60405180910390f35b6101fa60048036038101906101f5919061406b565b610627565b6040516102079190614be7565b60405180910390f35b610218610b59565b6040516102259190614c24565b60405180910390f35b61024860048036038101906102439190613f9a565b610beb565b005b610264600480360381019061025f9190613f71565b610dae565b6040516102719190614b80565b60405180910390f35b610294600480360381019061028f9190613dea565b610e33565b005b6102b060048036038101906102ab9190613ea1565b610f4b565b005b6102cc60048036038101906102c79190613ce4565b6113f7565b005b6102e860048036038101906102e39190613ce4565b611457565b005b61030460048036038101906102ff9190613f71565b611477565b6040516103119190614e66565b60405180910390f35b610334600480360381019061032f9190613f71565b611873565b6040516103419190614b80565b60405180910390f35b610364600480360381019061035f9190613c7f565b611925565b6040516103719190614ec6565b60405180910390f35b6103826119dd565b005b61039e60048036038101906103999190613ef1565b611a65565b005b6103a8611e44565b6040516103b59190614b80565b60405180910390f35b6103c6611e6e565b6040516103d39190614c24565b60405180910390f35b6103f660048036038101906103f19190613dea565b611f00565b005b610412600480360381019061040d9190613dae565b612043565b005b61042e60048036038101906104299190613d33565b6121c4565b005b61044a60048036038101906104459190613f71565b612226565b6040516104579190614c24565b60405180910390f35b61047a60048036038101906104759190613f71565b6122cd565b6040516104879190614e82565b60405180910390f35b6104aa60048036038101906104a59190613f71565b6124f4565b6040516104b79190614ea4565b60405180910390f35b6104da60048036038101906104d59190613ca8565b61292d565b6040516104e79190614c09565b60405180910390f35b61050a60048036038101906105059190613c7f565b6129c1565b005b61052660048036038101906105219190613e78565b612ab9565b6040516105339190614f18565b60405180910390f35b60006064905090565b60007f80ac58cd000000000000000000000000000000000000000000000000000000007bffffffffffffffffffffffffffffffffffffffffffffffffffffffff1916827bffffffffffffffffffffffffffffffffffffffffffffffffffffffff1916148061061057507f5b5e139f000000000000000000000000000000000000000000000000000000007bffffffffffffffffffffffffffffffffffffffffffffffffffffffff1916827bffffffffffffffffffffffffffffffffffffffffffffffffffffffff1916145b80610620575061061f82612b6a565b5b9050919050565b606060008260ff1667ffffffffffffffff81111561066e577f4e487b7100000000000000000000000000000000000000000000000000000000600052604160045260246000fd5b6040519080825280602002602001820160405280156106a757816020015b610694613717565b81526020019060019003908161068c5790505b5090506000805b600d548160ff161015610b4d578460ff168260ff161015610b355785600c60008360ff168152602001908152602001600020600101541415610b3057600c60008260ff1681526020019081526020016000206040518060800160405290816000820160009054906101000a900460ff166004811115610756577f4e487b7100000000000000000000000000000000000000000000000000000000600052602160045260246000fd5b600481111561078e577f4e487b7100000000000000000000000000000000000000000000000000000000600052602160045260246000fd5b81526020016001820154815260200160028201604051806060016040529081600082016040518060a00160405290816000820160009054906101000a900460ff166004811115610807577f4e487b7100000000000000000000000000000000000000000000000000000000600052602160045260246000fd5b600481111561083f577f4e487b7100000000000000000000000000000000000000000000000000000000600052602160045260246000fd5b81526020016000820160019054906101000a900460ff1660ff1660ff1681526020016000820160029054906101000a900460ff1660ff1660ff1681526020016000820160039054906101000a900460ff1660ff1660ff1681526020016000820160049054906101000a900460ff1660ff1660ff16815250508152602001600182016040518060a00160405290816000820160009054906101000a900460ff166004811115610916577f4e487b7100000000000000000000000000000000000000000000000000000000600052602160045260246000fd5b600481111561094e577f4e487b7100000000000000000000000000000000000000000000000000000000600052602160045260246000fd5b81526020016000820160019054906101000a900460ff1660ff1660ff1681526020016000820160029054906101000a900460ff1660ff1660ff1681526020016000820160039054906101000a900460ff1660ff1660ff1681526020016000820160049054906101000a900460ff1660ff1660ff16815250508152602001600282016040518060c00160405290816000820160009054906101000a900460ff161515151581526020016000820160019054906101000a900460ff161515151581526020016000820160029054906101000a900460ff161515151581526020016000820160039054906101000a900460ff161515151581526020016000820160049054906101000a900460ff161515151581526020016000820160059054906101000a900460ff1615151515815250508152505081526020016005820160009054906101000a900473ffffffffffffffffffffffffffffffffffffffff1673ffffffffffffffffffffffffffffffffffffffff1673ffffffffffffffffffffffffffffffffffffffff1681525050838360ff1681518110610b16577f4e487b7100000000000000000000000000000000000000000000000000000000600052603260045260246000fd5b60200260200101819052508180610b2c90615300565b9250505b610b3a565b610b4d565b8080610b4590615300565b9150506106ae565b50819250505092915050565b606060008054610b6890615285565b80601f0160208091040260200160405190810160405280929190818152602001828054610b9490615285565b8015610be15780601f10610bb657610100808354040283529160200191610be1565b820191906000526020600020905b815481529060010190602001808311610bc457829003601f168201915b5050505050905090565b610bf3612bd4565b73ffffffffffffffffffffffffffffffffffffffff16610c11611e44565b73ffffffffffffffffffffffffffffffffffffffff1614610c67576040517f08c379a0000000000000000000000000000000000000000000000000000000008152600401610c5e90614dc6565b60405180910390fd5b6040518060c001604052808781526020018681526020018581526020018481526020018360ff1681526020018260ff16815250600a6000600b548152602001908152602001600020600082015181600001556020820151816001019080519060200190610cd5929190613793565b506040820151816002019080519060200190610cf2929190613793565b506060820151816003019080519060200190610d0f929190613793565b5060808201518160040160006101000a81548160ff021916908360ff16021790555060a08201518160040160016101000a81548160ff021916908360ff1602179055509050507fa7cbdf96c309b1b9a2b80226e56339efdb21d389143d0b13f6c3defe47ede6fd600b54604051610d869190614ec6565b60405180910390a1600b6000815480929190610da1906152b7565b9190505550505050505050565b6000610db982612bdc565b610df8576040517f08c379a0000000000000000000000000000000000000000000000000000000008152600401610def90614da6565b60405180910390fd5b6004600083815260200190815260200160002060009054906101000a900473ffffffffffffffffffffffffffffffffffffffff169050919050565b6000610e3e82611873565b90508073ffffffffffffffffffffffffffffffffffffffff168373ffffffffffffffffffffffffffffffffffffffff161415610eaf576040517f08c379a0000000000000000000000000000000000000000000000000000000008152600401610ea690614e26565b60405180910390fd5b8073ffffffffffffffffffffffffffffffffffffffff16610ece612bd4565b73ffffffffffffffffffffffffffffffffffffffff161480610efd5750610efc81610ef7612bd4565b61292d565b5b610f3c576040517f08c379a0000000000000000000000000000000000000000000000000000000008152600401610f3390614d26565b60405180910390fd5b610f468383612c48565b505050565b610f53612bd4565b73ffffffffffffffffffffffffffffffffffffffff16610f71611e44565b73ffffffffffffffffffffffffffffffffffffffff1614610fc7576040517f08c379a0000000000000000000000000000000000000000000000000000000008152600401610fbe90614dc6565b60405180910390fd5b604051806080016040528084600481111561100b577f4e487b7100000000000000000000000000000000000000000000000000000000600052602160045260246000fd5b81526020018381526020018281526020013373ffffffffffffffffffffffffffffffffffffffff16815250600c6000600d54815260200190815260200160002060008201518160000160006101000a81548160ff0219169083600481111561109c577f4e487b7100000000000000000000000000000000000000000000000000000000600052602160045260246000fd5b02179055506020820151816001015560408201518160020160008201518160000160008201518160000160006101000a81548160ff0219169083600481111561110e577f4e487b7100000000000000000000000000000000000000000000000000000000600052602160045260246000fd5b021790555060208201518160000160016101000a81548160ff021916908360ff16021790555060408201518160000160026101000a81548160ff021916908360ff16021790555060608201518160000160036101000a81548160ff021916908360ff16021790555060808201518160000160046101000a81548160ff021916908360ff160217905550505060208201518160010160008201518160000160006101000a81548160ff021916908360048111156111f3577f4e487b7100000000000000000000000000000000000000000000000000000000600052602160045260246000fd5b021790555060208201518160000160016101000a81548160ff021916908360ff16021790555060408201518160000160026101000a81548160ff021916908360ff16021790555060608201518160000160036101000a81548160ff021916908360ff16021790555060808201518160000160046101000a81548160ff021916908360ff160217905550505060408201518160020160008201518160000160006101000a81548160ff02191690831515021790555060208201518160000160016101000a81548160ff02191690831515021790555060408201518160000160026101000a81548160ff02191690831515021790555060608201518160000160036101000a81548160ff02191690831515021790555060808201518160000160046101000a81548160ff02191690831515021790555060a08201518160000160056101000a81548160ff0219169083151502179055505050505060608201518160050160006101000a81548173ffffffffffffffffffffffffffffffffffffffff021916908373ffffffffffffffffffffffffffffffffffffffff1602179055509050506113a133600d54612d01565b7f7e02246a5bcbee089688078515815c1589951cf4e32e91191f96fe308529a669600d546040516113d29190614ec6565b60405180910390a1600d60008154809291906113ed906152b7565b9190505550505050565b611408611402612bd4565b82612d1f565b611447576040517f08c379a000000000000000000000000000000000000000000000000000000000815260040161143e90614e46565b60405180910390fd5b611452838383612dfd565b505050565b611472838383604051806020016040528060008152506121c4565b505050565b61147f613717565b600c60008381526020019081526020016000206040518060800160405290816000820160009054906101000a900460ff1660048111156114e8577f4e487b7100000000000000000000000000000000000000000000000000000000600052602160045260246000fd5b6004811115611520577f4e487b7100000000000000000000000000000000000000000000000000000000600052602160045260246000fd5b81526020016001820154815260200160028201604051806060016040529081600082016040518060a00160405290816000820160009054906101000a900460ff166004811115611599577f4e487b7100000000000000000000000000000000000000000000000000000000600052602160045260246000fd5b60048111156115d1577f4e487b7100000000000000000000000000000000000000000000000000000000600052602160045260246000fd5b81526020016000820160019054906101000a900460ff1660ff1660ff1681526020016000820160029054906101000a900460ff1660ff1660ff1681526020016000820160039054906101000a900460ff1660ff1660ff1681526020016000820160049054906101000a900460ff1660ff1660ff16815250508152602001600182016040518060a00160405290816000820160009054906101000a900460ff1660048111156116a8577f4e487b7100000000000000000000000000000000000000000000000000000000600052602160045260246000fd5b60048111156116e0577f4e487b7100000000000000000000000000000000000000000000000000000000600052602160045260246000fd5b81526020016000820160019054906101000a900460ff1660ff1660ff1681526020016000820160029054906101000a900460ff1660ff1660ff1681526020016000820160039054906101000a900460ff1660ff1660ff1681526020016000820160049054906101000a900460ff1660ff1660ff16815250508152602001600282016040518060c00160405290816000820160009054906101000a900460ff161515151581526020016000820160019054906101000a900460ff161515151581526020016000820160029054906101000a900460ff161515151581526020016000820160039054906101000a900460ff161515151581526020016000820160049054906101000a900460ff161515151581526020016000820160059054906101000a900460ff1615151515815250508152505081526020016005820160009054906101000a900473ffffffffffffffffffffffffffffffffffffffff1673ffffffffffffffffffffffffffffffffffffffff1673ffffffffffffffffffffffffffffffffffffffff16815250509050919050565b6000806002600084815260200190815260200160002060009054906101000a900473ffffffffffffffffffffffffffffffffffffffff169050600073ffffffffffffffffffffffffffffffffffffffff168173ffffffffffffffffffffffffffffffffffffffff16141561191c576040517f08c379a000000000000000000000000000000000000000000000000000000000815260040161191390614d66565b60405180910390fd5b80915050919050565b60008073ffffffffffffffffffffffffffffffffffffffff168273ffffffffffffffffffffffffffffffffffffffff161415611996576040517f08c379a000000000000000000000000000000000000000000000000000000000815260040161198d90614d46565b60405180910390fd5b600360008373ffffffffffffffffffffffffffffffffffffffff1673ffffffffffffffffffffffffffffffffffffffff168152602001908152602001600020549050919050565b6119e5612bd4565b73ffffffffffffffffffffffffffffffffffffffff16611a03611e44565b73ffffffffffffffffffffffffffffffffffffffff1614611a59576040517f08c379a0000000000000000000000000000000000000000000000000000000008152600401611a5090614dc6565b60405180910390fd5b611a636000613059565b565b611a6d612bd4565b73ffffffffffffffffffffffffffffffffffffffff16611a8b611e44565b73ffffffffffffffffffffffffffffffffffffffff1614611ae1576040517f08c379a0000000000000000000000000000000000000000000000000000000008152600401611ad890614dc6565b60405180910390fd5b6040518060600160405280848152602001838152602001828152506008600060095481526020019081526020016000206000820151816000019080519060200190611b2d929190613793565b506020820151816001019080519060200190611b4a929190613793565b5060408201518160020160008201518160000160008201518160000160006101000a81548160ff02191690836004811115611bae577f4e487b7100000000000000000000000000000000000000000000000000000000600052602160045260246000fd5b021790555060208201518160000160016101000a81548160ff021916908360ff16021790555060408201518160000160026101000a81548160ff021916908360ff16021790555060608201518160000160036101000a81548160ff021916908360ff16021790555060808201518160000160046101000a81548160ff021916908360ff160217905550505060208201518160010160008201518160000160006101000a81548160ff02191690836004811115611c93577f4e487b7100000000000000000000000000000000000000000000000000000000600052602160045260246000fd5b021790555060208201518160000160016101000a81548160ff021916908360ff16021790555060408201518160000160026101000a81548160ff021916908360ff16021790555060608201518160000160036101000a81548160ff021916908360ff16021790555060808201518160000160046101000a81548160ff021916908360ff160217905550505060408201518160020160008201518160000160006101000a81548160ff02191690831515021790555060208201518160000160016101000a81548160ff02191690831515021790555060408201518160000160026101000a81548160ff02191690831515021790555060608201518160000160036101000a81548160ff02191690831515021790555060808201518160000160046101000a81548160ff02191690831515021790555060a08201518160000160056101000a81548160ff021916908315150217905550505050509050507f7b0d3f9a3275ff88797b2be24fd4bb5cbd615a15cecfcaede61932bac5d84683600954604051611e1f9190614ec6565b60405180910390a160096000815480929190611e3a906152b7565b9190505550505050565b6000600660009054906101000a900473ffffffffffffffffffffffffffffffffffffffff16905090565b606060018054611e7d90615285565b80601f0160208091040260200160405190810160405280929190818152602001828054611ea990615285565b8015611ef65780601f10611ecb57610100808354040283529160200191611ef6565b820191906000526020600020905b815481529060010190602001808311611ed957829003601f168201915b5050505050905090565b3373ffffffffffffffffffffffffffffffffffffffff16600c600083815260200190815260200160002060050160009054906101000a900473ffffffffffffffffffffffffffffffffffffffff1673ffffffffffffffffffffffffffffffffffffffff1614611fa4576040517f08c379a0000000000000000000000000000000000000000000000000000000008152600401611f9b90614d06565b60405180910390fd5b611faf338383612dfd565b33600c600083815260200190815260200160002060050160006101000a81548173ffffffffffffffffffffffffffffffffffffffff021916908373ffffffffffffffffffffffffffffffffffffffff1602179055507ffdbf46b020dccf3e397a4cd0d567702364e95022c7404c25ff85e9c25dd51b4f81338460405161203793929190614ee1565b60405180910390a15050565b61204b612bd4565b73ffffffffffffffffffffffffffffffffffffffff168273ffffffffffffffffffffffffffffffffffffffff1614156120b9576040517f08c379a00000000000000000000000000000000000000000000000000000000081526004016120b090614cc6565b60405180910390fd5b80600560006120c6612bd4565b73ffffffffffffffffffffffffffffffffffffffff1673ffffffffffffffffffffffffffffffffffffffff16815260200190815260200160002060008473ffffffffffffffffffffffffffffffffffffffff1673ffffffffffffffffffffffffffffffffffffffff16815260200190815260200160002060006101000a81548160ff0219169083151502179055508173ffffffffffffffffffffffffffffffffffffffff16612173612bd4565b73ffffffffffffffffffffffffffffffffffffffff167f17307eab39ab6107e8899845ad3d59bd9653f200f220920489ca2b5937696c31836040516121b89190614c09565b60405180910390a35050565b6121d56121cf612bd4565b83612d1f565b612214576040517f08c379a000000000000000000000000000000000000000000000000000000000815260040161220b90614e46565b60405180910390fd5b6122208484848461311f565b50505050565b606061223182612bdc565b612270576040517f08c379a000000000000000000000000000000000000000000000000000000000815260040161226790614e06565b60405180910390fd5b600061227a61317b565b9050600081511161229a57604051806020016040528060008152506122c5565b806122a484613192565b6040516020016122b5929190614b5c565b6040516020818303038152906040525b915050919050565b6122d5613819565b600a60008381526020019081526020016000206040518060c00160405290816000820154815260200160018201805461230d90615285565b80601f016020809104026020016040519081016040528092919081815260200182805461233990615285565b80156123865780601f1061235b57610100808354040283529160200191612386565b820191906000526020600020905b81548152906001019060200180831161236957829003601f168201915b5050505050815260200160028201805461239f90615285565b80601f01602080910402602001604051908101604052809291908181526020018280546123cb90615285565b80156124185780601f106123ed57610100808354040283529160200191612418565b820191906000526020600020905b8154815290600101906020018083116123fb57829003601f168201915b5050505050815260200160038201805461243190615285565b80601f016020809104026020016040519081016040528092919081815260200182805461245d90615285565b80156124aa5780601f1061247f576101008083540402835291602001916124aa565b820191906000526020600020905b81548152906001019060200180831161248d57829003601f168201915b505050505081526020016004820160009054906101000a900460ff1660ff1660ff1681526020016004820160019054906101000a900460ff1660ff1660ff16815250509050919050565b6124fc613855565b6008600083815260200190815260200160002060405180606001604052908160008201805461252a90615285565b80601f016020809104026020016040519081016040528092919081815260200182805461255690615285565b80156125a35780601f10612578576101008083540402835291602001916125a3565b820191906000526020600020905b81548152906001019060200180831161258657829003601f168201915b505050505081526020016001820180546125bc90615285565b80601f01602080910402602001604051908101604052809291908181526020018280546125e890615285565b80156126355780601f1061260a57610100808354040283529160200191612635565b820191906000526020600020905b81548152906001019060200180831161261857829003601f168201915b5050505050815260200160028201604051806060016040529081600082016040518060a00160405290816000820160009054906101000a900460ff1660048111156126a9577f4e487b7100000000000000000000000000000000000000000000000000000000600052602160045260246000fd5b60048111156126e1577f4e487b7100000000000000000000000000000000000000000000000000000000600052602160045260246000fd5b81526020016000820160019054906101000a900460ff1660ff1660ff1681526020016000820160029054906101000a900460ff1660ff1660ff1681526020016000820160039054906101000a900460ff1660ff1660ff1681526020016000820160049054906101000a900460ff1660ff1660ff16815250508152602001600182016040518060a00160405290816000820160009054906101000a900460ff1660048111156127b8577f4e487b7100000000000000000000000000000000000000000000000000000000600052602160045260246000fd5b60048111156127f0577f4e487b7100000000000000000000000000000000000000000000000000000000600052602160045260246000fd5b81526020016000820160019054906101000a900460ff1660ff1660ff1681526020016000820160029054906101000a900460ff1660ff1660ff1681526020016000820160039054906101000a900460ff1660ff1660ff1681526020016000820160049054906101000a900460ff1660ff1660ff16815250508152602001600282016040518060c00160405290816000820160009054906101000a900460ff161515151581526020016000820160019054906101000a900460ff161515151581526020016000820160029054906101000a900460ff161515151581526020016000820160039054906101000a900460ff161515151581526020016000820160049054906101000a900460ff161515151581526020016000820160059054906101000a900460ff16151515158152505081525050815250509050919050565b6000600560008473ffffffffffffffffffffffffffffffffffffffff1673ffffffffffffffffffffffffffffffffffffffff16815260200190815260200160002060008373ffffffffffffffffffffffffffffffffffffffff1673ffffffffffffffffffffffffffffffffffffffff16815260200190815260200160002060009054906101000a900460ff16905092915050565b6129c9612bd4565b73ffffffffffffffffffffffffffffffffffffffff166129e7611e44565b73ffffffffffffffffffffffffffffffffffffffff1614612a3d576040517f08c379a0000000000000000000000000000000000000000000000000000000008152600401612a3490614dc6565b60405180910390fd5b600073ffffffffffffffffffffffffffffffffffffffff168173ffffffffffffffffffffffffffffffffffffffff161415612aad576040517f08c379a0000000000000000000000000000000000000000000000000000000008152600401612aa490614c66565b60405180910390fd5b612ab681613059565b50565b600060076000836004811115612af8577f4e487b7100000000000000000000000000000000000000000000000000000000600052602160045260246000fd5b6004811115612b30577f4e487b7100000000000000000000000000000000000000000000000000000000600052602160045260246000fd5b815260200190815260200160002060009054906101000a900460ff16606480612b5991906150d8565b612b639190615109565b9050919050565b60007f01ffc9a7000000000000000000000000000000000000000000000000000000007bffffffffffffffffffffffffffffffffffffffffffffffffffffffff1916827bffffffffffffffffffffffffffffffffffffffffffffffffffffffff1916149050919050565b600033905090565b60008073ffffffffffffffffffffffffffffffffffffffff166002600084815260200190815260200160002060009054906101000a900473ffffffffffffffffffffffffffffffffffffffff1673ffffffffffffffffffffffffffffffffffffffff1614159050919050565b816004600083815260200190815260200160002060006101000a81548173ffffffffffffffffffffffffffffffffffffffff021916908373ffffffffffffffffffffffffffffffffffffffff160217905550808273ffffffffffffffffffffffffffffffffffffffff16612cbb83611873565b73ffffffffffffffffffffffffffffffffffffffff167f8c5be1e5ebec7d5bd14f71427d1e84f3dd0314c0f7b2291e5b200ac8c7c3b92560405160405180910390a45050565b612d1b82826040518060200160405280600081525061333f565b5050565b6000612d2a82612bdc565b612d69576040517f08c379a0000000000000000000000000000000000000000000000000000000008152600401612d6090614ce6565b60405180910390fd5b6000612d7483611873565b90508073ffffffffffffffffffffffffffffffffffffffff168473ffffffffffffffffffffffffffffffffffffffff161480612de357508373ffffffffffffffffffffffffffffffffffffffff16612dcb84610dae565b73ffffffffffffffffffffffffffffffffffffffff16145b80612df45750612df3818561292d565b5b91505092915050565b8273ffffffffffffffffffffffffffffffffffffffff16612e1d82611873565b73ffffffffffffffffffffffffffffffffffffffff1614612e73576040517f08c379a0000000000000000000000000000000000000000000000000000000008152600401612e6a90614de6565b60405180910390fd5b600073ffffffffffffffffffffffffffffffffffffffff168273ffffffffffffffffffffffffffffffffffffffff161415612ee3576040517f08c379a0000000000000000000000000000000000000000000000000000000008152600401612eda90614ca6565b60405180910390fd5b612eee83838361339a565b612ef9600082612c48565b6001600360008573ffffffffffffffffffffffffffffffffffffffff1673ffffffffffffffffffffffffffffffffffffffff1681526020019081526020016000206000828254612f499190615144565b925050819055506001600360008473ffffffffffffffffffffffffffffffffffffffff1673ffffffffffffffffffffffffffffffffffffffff1681526020019081526020016000206000828254612fa09190615051565b92505081905550816002600083815260200190815260200160002060006101000a81548173ffffffffffffffffffffffffffffffffffffffff021916908373ffffffffffffffffffffffffffffffffffffffff160217905550808273ffffffffffffffffffffffffffffffffffffffff168473ffffffffffffffffffffffffffffffffffffffff167fddf252ad1be2c89b69c2b068fc378daa952ba7f163c4a11628f55a4df523b3ef60405160405180910390a4505050565b6000600660009054906101000a900473ffffffffffffffffffffffffffffffffffffffff16905081600660006101000a81548173ffffffffffffffffffffffffffffffffffffffff021916908373ffffffffffffffffffffffffffffffffffffffff1602179055508173ffffffffffffffffffffffffffffffffffffffff168173ffffffffffffffffffffffffffffffffffffffff167f8be0079c531659141344cd1fd0a4f28419497f9722a3daafe3b4186f6b6457e060405160405180910390a35050565b61312a848484612dfd565b6131368484848461339f565b613175576040517f08c379a000000000000000000000000000000000000000000000000000000000815260040161316c90614c46565b60405180910390fd5b50505050565b606060405180602001604052806000815250905090565b606060008214156131da576040518060400160405280600181526020017f3000000000000000000000000000000000000000000000000000000000000000815250905061333a565b600082905060005b6000821461320c5780806131f5906152b7565b915050600a8261320591906150a7565b91506131e2565b60008167ffffffffffffffff81111561324e577f4e487b7100000000000000000000000000000000000000000000000000000000600052604160045260246000fd5b6040519080825280601f01601f1916602001820160405280156132805781602001600182028036833780820191505090505b5090505b60008514613333576001826132999190615144565b9150600a856132a8919061532a565b60306132b49190615051565b60f81b8183815181106132f0577f4e487b7100000000000000000000000000000000000000000000000000000000600052603260045260246000fd5b60200101907effffffffffffffffffffffffffffffffffffffffffffffffffffffffffffff1916908160001a905350600a8561332c91906150a7565b9450613284565b8093505050505b919050565b6133498383613536565b613356600084848461339f565b613395576040517f08c379a000000000000000000000000000000000000000000000000000000000815260040161338c90614c46565b60405180910390fd5b505050565b505050565b60006133c08473ffffffffffffffffffffffffffffffffffffffff16613704565b15613529578373ffffffffffffffffffffffffffffffffffffffff1663150b7a026133e9612bd4565b8786866040518563ffffffff1660e01b815260040161340b9493929190614b9b565b602060405180830381600087803b15801561342557600080fd5b505af192505050801561345657506040513d601f19601f820116820180604052508101906134539190613e4f565b60015b6134d9573d8060008114613486576040519150601f19603f3d011682016040523d82523d6000602084013e61348b565b606091505b506000815114156134d1576040517f08c379a00000000000000000000000000000000000000000000000000000000081526004016134c890614c46565b60405180910390fd5b805181602001fd5b63150b7a0260e01b7bffffffffffffffffffffffffffffffffffffffffffffffffffffffff1916817bffffffffffffffffffffffffffffffffffffffffffffffffffffffff19161491505061352e565b600190505b949350505050565b600073ffffffffffffffffffffffffffffffffffffffff168273ffffffffffffffffffffffffffffffffffffffff1614156135a6576040517f08c379a000000000000000000000000000000000000000000000000000000000815260040161359d90614d86565b60405180910390fd5b6135af81612bdc565b156135ef576040517f08c379a00000000000000000000000000000000000000000000000000000000081526004016135e690614c86565b60405180910390fd5b6135fb6000838361339a565b6001600360008473ffffffffffffffffffffffffffffffffffffffff1673ffffffffffffffffffffffffffffffffffffffff168152602001908152602001600020600082825461364b9190615051565b92505081905550816002600083815260200190815260200160002060006101000a81548173ffffffffffffffffffffffffffffffffffffffff021916908373ffffffffffffffffffffffffffffffffffffffff160217905550808273ffffffffffffffffffffffffffffffffffffffff16600073ffffffffffffffffffffffffffffffffffffffff167fddf252ad1be2c89b69c2b068fc378daa952ba7f163c4a11628f55a4df523b3ef60405160405180910390a45050565b600080823b905060008111915050919050565b60405180608001604052806000600481111561375c577f4e487b7100000000000000000000000000000000000000000000000000000000600052602160045260246000fd5b81526020016000815260200161377061387c565b8152602001600073ffffffffffffffffffffffffffffffffffffffff1681525090565b82805461379f90615285565b90600052602060002090601f0160209004810192826137c15760008555613808565b82601f106137da57805160ff1916838001178555613808565b82800160010185558215613808579182015b828111156138075782518255916020019190600101906137ec565b5b50905061381591906138af565b5090565b6040518060c0016040528060008152602001606081526020016060815260200160608152602001600060ff168152602001600060ff1681525090565b6040518060600160405280606081526020016060815260200161387661387c565b81525090565b604051806060016040528061388f6138cc565b815260200161389c6138cc565b81526020016138a961393f565b81525090565b5b808211156138c85760008160009055506001016138b0565b5090565b6040518060a0016040528060006004811115613911577f4e487b7100000000000000000000000000000000000000000000000000000000600052602160045260246000fd5b8152602001600060ff168152602001600060ff168152602001600060ff168152602001600060ff1681525090565b6040518060c001604052806000151581526020016000151581526020016000151581526020016000151581526020016000151581526020016000151581525090565b600061399461398f84614f64565b614f33565b9050828152602081018484840111156139ac57600080fd5b6139b7848285615243565b509392505050565b60006139d26139cd84614f94565b614f33565b9050828152602081018484840111156139ea57600080fd5b6139f5848285615243565b509392505050565b600081359050613a0c8161547f565b92915050565b600081359050613a2181615496565b92915050565b600081359050613a36816154ad565b92915050565b600081519050613a4b816154ad565b92915050565b600082601f830112613a6257600080fd5b8135613a72848260208601613981565b91505092915050565b600081359050613a8a816154c4565b92915050565b600081359050613a9f816154d4565b92915050565b600082601f830112613ab657600080fd5b8135613ac68482602086016139bf565b91505092915050565b60006102008284031215613ae257600080fd5b613aec6060614f33565b90506000613afc84828501613bcd565b60008301525060a0613b1084828501613bcd565b602083015250610140613b2584828501613b31565b60408301525092915050565b600060c08284031215613b4357600080fd5b613b4d60c0614f33565b90506000613b5d84828501613a12565b6000830152506020613b7184828501613a12565b6020830152506040613b8584828501613a12565b6040830152506060613b9984828501613a12565b6060830152506080613bad84828501613a12565b60808301525060a0613bc184828501613a12565b60a08301525092915050565b600060a08284031215613bdf57600080fd5b613be960a0614f33565b90506000613bf984828501613a90565b6000830152506020613c0d84828501613c6a565b6020830152506040613c2184828501613c6a565b6040830152506060613c3584828501613c6a565b6060830152506080613c4984828501613c6a565b60808301525092915050565b600081359050613c64816154e4565b92915050565b600081359050613c79816154fb565b92915050565b600060208284031215613c9157600080fd5b6000613c9f848285016139fd565b91505092915050565b60008060408385031215613cbb57600080fd5b6000613cc9858286016139fd565b9250506020613cda858286016139fd565b9150509250929050565b600080600060608486031215613cf957600080fd5b6000613d07868287016139fd565b9350506020613d18868287016139fd565b9250506040613d2986828701613c55565b9150509250925092565b60008060008060808587031215613d4957600080fd5b6000613d57878288016139fd565b9450506020613d68878288016139fd565b9350506040613d7987828801613c55565b925050606085013567ffffffffffffffff811115613d9657600080fd5b613da287828801613a51565b91505092959194509250565b60008060408385031215613dc157600080fd5b6000613dcf858286016139fd565b9250506020613de085828601613a12565b9150509250929050565b60008060408385031215613dfd57600080fd5b6000613e0b858286016139fd565b9250506020613e1c85828601613c55565b9150509250929050565b600060208284031215613e3857600080fd5b6000613e4684828501613a27565b91505092915050565b600060208284031215613e6157600080fd5b6000613e6f84828501613a3c565b91505092915050565b600060208284031215613e8a57600080fd5b6000613e9884828501613a7b565b91505092915050565b60008060006102408486031215613eb757600080fd5b6000613ec586828701613a7b565b9350506020613ed686828701613c55565b9250506040613ee786828701613acf565b9150509250925092565b60008060006102408486031215613f0757600080fd5b600084013567ffffffffffffffff811115613f2157600080fd5b613f2d86828701613aa5565b935050602084013567ffffffffffffffff811115613f4a57600080fd5b613f5686828701613aa5565b9250506040613f6786828701613acf565b9150509250925092565b600060208284031215613f8357600080fd5b6000613f9184828501613c55565b91505092915050565b60008060008060008060c08789031215613fb357600080fd5b6000613fc189828a01613c55565b965050602087013567ffffffffffffffff811115613fde57600080fd5b613fea89828a01613aa5565b955050604087013567ffffffffffffffff81111561400757600080fd5b61401389828a01613aa5565b945050606087013567ffffffffffffffff81111561403057600080fd5b61403c89828a01613aa5565b935050608061404d89828a01613c6a565b92505060a061405e89828a01613c6a565b9150509295509295509295565b6000806040838503121561407e57600080fd5b600061408c85828601613c55565b925050602061409d85828601613c6a565b9150509250929050565b60006140b3838361491b565b6102608301905092915050565b6140c981615178565b82525050565b6140d881615178565b82525050565b60006140e982614fd4565b6140f38185615002565b93506140fe83614fc4565b8060005b8381101561412f57815161411688826140a7565b975061412183614ff5565b925050600181019050614102565b5085935050505092915050565b6141458161518a565b82525050565b6141548161518a565b82525050565b600061416582614fdf565b61416f8185615013565b935061417f818560208601615252565b61418881615446565b840191505092915050565b61419c8161521f565b82525050565b6141ab81615231565b82525050565b60006141bc82614fea565b6141c68185615024565b93506141d6818560208601615252565b6141df81615446565b840191505092915050565b60006141f582614fea565b6141ff8185615035565b935061420f818560208601615252565b61421881615446565b840191505092915050565b600061422e82614fea565b6142388185615046565b9350614248818560208601615252565b80840191505092915050565b6000614261603283615035565b91507f4552433732313a207472616e7366657220746f206e6f6e20455243373231526560008301527f63656976657220696d706c656d656e74657200000000000000000000000000006020830152604082019050919050565b60006142c7602683615035565b91507f4f776e61626c653a206e6577206f776e657220697320746865207a65726f206160008301527f64647265737300000000000000000000000000000000000000000000000000006020830152604082019050919050565b600061432d601c83615035565b91507f4552433732313a20746f6b656e20616c7265616479206d696e746564000000006000830152602082019050919050565b600061436d602483615035565b91507f4552433732313a207472616e7366657220746f20746865207a65726f2061646460008301527f72657373000000000000000000000000000000000000000000000000000000006020830152604082019050919050565b60006143d3601983615035565b91507f4552433732313a20617070726f766520746f2063616c6c6572000000000000006000830152602082019050919050565b6000614413602c83615035565b91507f4552433732313a206f70657261746f7220717565727920666f72206e6f6e657860008301527f697374656e7420746f6b656e00000000000000000000000000000000000000006020830152604082019050919050565b6000614479600f83615035565b91507f4972726567756c6172206f776e657200000000000000000000000000000000006000830152602082019050919050565b60006144b9603883615035565b91507f4552433732313a20617070726f76652063616c6c6572206973206e6f74206f7760008301527f6e6572206e6f7220617070726f76656420666f7220616c6c00000000000000006020830152604082019050919050565b600061451f602a83615035565b91507f4552433732313a2062616c616e636520717565727920666f7220746865207a6560008301527f726f2061646472657373000000000000000000000000000000000000000000006020830152604082019050919050565b6000614585602983615035565b91507f4552433732313a206f776e657220717565727920666f72206e6f6e657869737460008301527f656e7420746f6b656e00000000000000000000000000000000000000000000006020830152604082019050919050565b60006145eb602083615035565b91507f4552433732313a206d696e7420746f20746865207a65726f20616464726573736000830152602082019050919050565b600061462b602c83615035565b91507f4552433732313a20617070726f76656420717565727920666f72206e6f6e657860008301527f697374656e7420746f6b656e00000000000000000000000000000000000000006020830152604082019050919050565b6000614691602083615035565b91507f4f776e61626c653a2063616c6c6572206973206e6f7420746865206f776e65726000830152602082019050919050565b60006146d1602983615035565b91507f4552433732313a207472616e73666572206f6620746f6b656e2074686174206960008301527f73206e6f74206f776e00000000000000000000000000000000000000000000006020830152604082019050919050565b6000614737602f83615035565b91507f4552433732314d657461646174613a2055524920717565727920666f72206e6f60008301527f6e6578697374656e7420746f6b656e00000000000000000000000000000000006020830152604082019050919050565b600061479d602183615035565b91507f4552433732313a20617070726f76616c20746f2063757272656e74206f776e6560008301527f72000000000000000000000000000000000000000000000000000000000000006020830152604082019050919050565b6000614803603183615035565b91507f4552433732313a207472616e736665722063616c6c6572206973206e6f74206f60008301527f776e6572206e6f7220617070726f7665640000000000000000000000000000006020830152604082019050919050565b610200820160008201516148736000850182614ab8565b50602082015161488660a0850182614ab8565b50604082015161489a6101408501826148a0565b50505050565b60c0820160008201516148b6600085018261413c565b5060208201516148c9602085018261413c565b5060408201516148dc604085018261413c565b5060608201516148ef606085018261413c565b506080820151614902608085018261413c565b5060a082015161491560a085018261413c565b50505050565b610260820160008201516149326000850182614193565b5060208201516149456020850182614b20565b506040820151614958604085018261485c565b50606082015161496c6102408501826140c0565b50505050565b610260820160008201516149896000850182614193565b50602082015161499c6020850182614b20565b5060408201516149af604085018261485c565b5060608201516149c36102408501826140c0565b50505050565b600060c0830160008301516149e16000860182614b20565b50602083015184820360208601526149f982826141b1565b91505060408301518482036040860152614a1382826141b1565b91505060608301518482036060860152614a2d82826141b1565b9150506080830151614a426080860182614b3e565b5060a0830151614a5560a0860182614b3e565b508091505092915050565b6000610240830160008301518482036000860152614a7e82826141b1565b91505060208301518482036020860152614a9882826141b1565b9150506040830151614aad604086018261485c565b508091505092915050565b60a082016000820151614ace60008501826141a2565b506020820151614ae16020850182614b3e565b506040820151614af46040850182614b3e565b506060820151614b076060850182614b3e565b506080820151614b1a6080850182614b3e565b50505050565b614b2981615208565b82525050565b614b3881615208565b82525050565b614b4781615212565b82525050565b614b5681615212565b82525050565b6000614b688285614223565b9150614b748284614223565b91508190509392505050565b6000602082019050614b9560008301846140cf565b92915050565b6000608082019050614bb060008301876140cf565b614bbd60208301866140cf565b614bca6040830185614b2f565b8181036060830152614bdc818461415a565b905095945050505050565b60006020820190508181036000830152614c0181846140de565b905092915050565b6000602082019050614c1e600083018461414b565b92915050565b60006020820190508181036000830152614c3e81846141ea565b905092915050565b60006020820190508181036000830152614c5f81614254565b9050919050565b60006020820190508181036000830152614c7f816142ba565b9050919050565b60006020820190508181036000830152614c9f81614320565b9050919050565b60006020820190508181036000830152614cbf81614360565b9050919050565b60006020820190508181036000830152614cdf816143c6565b9050919050565b60006020820190508181036000830152614cff81614406565b9050919050565b60006020820190508181036000830152614d1f8161446c565b9050919050565b60006020820190508181036000830152614d3f816144ac565b9050919050565b60006020820190508181036000830152614d5f81614512565b9050919050565b60006020820190508181036000830152614d7f81614578565b9050919050565b60006020820190508181036000830152614d9f816145de565b9050919050565b60006020820190508181036000830152614dbf8161461e565b9050919050565b60006020820190508181036000830152614ddf81614684565b9050919050565b60006020820190508181036000830152614dff816146c4565b9050919050565b60006020820190508181036000830152614e1f8161472a565b9050919050565b60006020820190508181036000830152614e3f81614790565b9050919050565b60006020820190508181036000830152614e5f816147f6565b9050919050565b600061026082019050614e7c6000830184614972565b92915050565b60006020820190508181036000830152614e9c81846149c9565b905092915050565b60006020820190508181036000830152614ebe8184614a60565b905092915050565b6000602082019050614edb6000830184614b2f565b92915050565b6000606082019050614ef66000830186614b2f565b614f0360208301856140cf565b614f1060408301846140cf565b949350505050565b6000602082019050614f2d6000830184614b4d565b92915050565b6000604051905081810181811067ffffffffffffffff82111715614f5a57614f59615417565b5b8060405250919050565b600067ffffffffffffffff821115614f7f57614f7e615417565b5b601f19601f8301169050602081019050919050565b600067ffffffffffffffff821115614faf57614fae615417565b5b601f19601f8301169050602081019050919050565b6000819050602082019050919050565b600081519050919050565b600081519050919050565b600081519050919050565b6000602082019050919050565b600082825260208201905092915050565b600082825260208201905092915050565b600082825260208201905092915050565b600082825260208201905092915050565b600081905092915050565b600061505c82615208565b915061506783615208565b9250827fffffffffffffffffffffffffffffffffffffffffffffffffffffffffffffffff0382111561509c5761509b61535b565b5b828201905092915050565b60006150b282615208565b91506150bd83615208565b9250826150cd576150cc61538a565b5b828204905092915050565b60006150e382615212565b91506150ee83615212565b9250826150fe576150fd61538a565b5b828204905092915050565b600061511482615212565b915061511f83615212565b92508160ff04831182151516156151395761513861535b565b5b828202905092915050565b600061514f82615208565b915061515a83615208565b92508282101561516d5761516c61535b565b5b828203905092915050565b6000615183826151e8565b9050919050565b60008115159050919050565b60007fffffffff0000000000000000000000000000000000000000000000000000000082169050919050565b60008190506151d082615457565b919050565b60008190506151e38261546b565b919050565b600073ffffffffffffffffffffffffffffffffffffffff82169050919050565b6000819050919050565b600060ff82169050919050565b600061522a826151c2565b9050919050565b600061523c826151d5565b9050919050565b82818337600083830152505050565b60005b83811015615270578082015181840152602081019050615255565b8381111561527f576000848401525b50505050565b6000600282049050600182168061529d57607f821691505b602082108114156152b1576152b06153e8565b5b50919050565b60006152c282615208565b91507fffffffffffffffffffffffffffffffffffffffffffffffffffffffffffffffff8214156152f5576152f461535b565b5b600182019050919050565b600061530b82615212565b915060ff82141561531f5761531e61535b565b5b600182019050919050565b600061533582615208565b915061534083615208565b9250826153505761534f61538a565b5b828206905092915050565b7f4e487b7100000000000000000000000000000000000000000000000000000000600052601160045260246000fd5b7f4e487b7100000000000000000000000000000000000000000000000000000000600052601260045260246000fd5b7f4e487b7100000000000000000000000000000000000000000000000000000000600052602160045260246000fd5b7f4e487b7100000000000000000000000000000000000000000000000000000000600052602260045260246000fd5b7f4e487b7100000000000000000000000000000000000000000000000000000000600052604160045260246000fd5b6000601f19601f8301169050919050565b60058110615468576154676153b9565b5b50565b6005811061547c5761547b6153b9565b5b50565b61548881615178565b811461549357600080fd5b50565b61549f8161518a565b81146154aa57600080fd5b50565b6154b681615196565b81146154c157600080fd5b50565b600581106154d157600080fd5b50565b600581106154e157600080fd5b50565b6154ed81615208565b81146154f857600080fd5b50565b61550481615212565b811461550f57600080fd5b5056fea2646970667358221220e744d717b560ff2643d8577a6ddc304d6b1c42bbf00b772997bff3ac87b7701264736f6c63430008000033",
  "immutableReferences": {},
  "source": "// SPDX-License-Identifier: MIT\npragma solidity 0.8.0;\n\nimport \"@openzeppelin/contracts/token/ERC721/ERC721.sol\";\nimport \"@openzeppelin/contracts/access/Ownable.sol\";\n\ncontract CrackleRivals is ERC721, Ownable {\n    // Character card type\n    enum CardType {\n        COMMON,\n        EPIC,\n        RARE,\n        LEGENDARY,\n        LIMITED\n    }\n\n    // Hash of cards\n    string constant COMMON_CARD_HASH = \"to-define\";\n    string constant ERPIC_CARD_HASH = \"to-define\";\n    string constant RARE_CARD_HASH = \"to-define\";\n    string constant LEGENDARY_CARD_HASH = \"to-define\";\n    string constant LIMITED_CARD_HASH = \"to-define\";\n\n    // Card distribution\n    uint8 constant CHARACTER_CARD_MAX_SUPPLY = 100;\n    mapping(CardType => uint8) _cardsSupply;\n\n    /*\n     ** attributes\n     */\n    // Amplifier => Same value plus every round\n    // Reducer => Same value min. every round\n    // W_Round => Win current round bonus for next round\n    // L_Round => Lose current round bonus for next round\n    // TOT_ATK => When Totale Attack count is more than a certain limit\n    enum ModifierLife {\n        AMPLIFIER,\n        REDUCER,\n        W_ROUND,\n        L_ROUND,\n        TOT_ATK\n    }\n\n    struct Modifier {\n        ModifierLife modifierLife;\n        uint8 attack;\n        uint8 damage;\n        uint8 energy;\n        uint8 health;\n    }\n\n    /*\n     ** Skill => Block skill\n     ** Ability => Block ability\n     */\n    struct Blocker {\n        bool skill;\n        bool ability;\n        bool attackModifier;\n        bool damageModifier;\n        bool energyModifier;\n        bool healthModifier;\n    }\n\n    // Self modifier => positive\n    // Rival modifier => negative\n    struct Attribute {\n        Modifier selfModifier;\n        Modifier rivalModifier;\n        Blocker blocks;\n    }\n    /*\n     ** end attributes\n     */\n\n    struct Clan {\n        string name;\n        string description;\n        Attribute skill;\n    }\n\n    struct Character {\n        uint256 clanId;\n        string name;\n        string description;\n        string hash;\n        uint8 attack;\n        uint8 damage;\n    }\n\n    struct CharacterCard {\n        CardType cardType;\n        uint256 characterId;\n        Attribute ability;\n        address owner;\n    }\n\n    mapping(uint256 => Clan) private _clans;\n    uint256 nextClanId = 0;\n\n    mapping(uint256 => Character) private _characters;\n    uint256 nextCharacterId = 0;\n\n    mapping(uint256 => CharacterCard) private _characterCards;\n    uint256 nextCharacterCardId = 0;\n\n    constructor() ERC721(\"Crackle Rivals\", \"CKL\") {\n        _cardsSupply[CardType.EPIC] = 45;\n        _cardsSupply[CardType.RARE] = 35;\n        _cardsSupply[CardType.LEGENDARY] = 15;\n        _cardsSupply[CardType.LIMITED] = 5;\n    }\n\n    function mintClan(\n        string memory name,\n        string memory description,\n        Attribute memory skill\n    ) public onlyOwner {\n        _clans[nextClanId] = Clan(name, description, skill);\n        emit ClanMinted(nextClanId);\n\n        nextClanId++;\n    }\n\n    function mintCharacter(\n        uint256 clanId,\n        string memory name,\n        string memory description,\n        string memory hash,\n        uint8 attack,\n        uint8 damage\n    ) public onlyOwner {\n        _characters[nextCharacterId] = Character(\n            clanId,\n            name,\n            description,\n            hash,\n            attack,\n            damage\n        );\n        emit CharacterMinted(nextCharacterId);\n\n        nextCharacterId++;\n    }\n\n    function mintCard(\n        CardType cardType,\n        uint256 characterId,\n        Attribute memory ability\n    ) public onlyOwner {\n        _characterCards[nextCharacterCardId] = CharacterCard(\n            cardType,\n            characterId,\n            ability,\n            msg.sender\n        );\n\n        // Mint card\n        _safeMint(msg.sender, nextCharacterCardId);\n        emit CharacterCardMinted(nextCharacterCardId);\n\n        nextCharacterCardId++;\n    }\n\n    function transferCard(address to, uint256 characterCardId) public {\n        require(\n            _characterCards[characterCardId].owner == msg.sender,\n            \"Irregular owner\"\n        );\n\n        _transfer(msg.sender, to, characterCardId);\n        _characterCards[characterCardId].owner = msg.sender;\n\n        emit CharacterCardTransfered(characterCardId, msg.sender, to);\n    }\n\n    function getClan(uint256 clanId) public view returns (Clan memory) {\n        return _clans[clanId];\n    }\n\n    function getCharacter(uint256 characterId)\n        public\n        view\n        returns (Character memory)\n    {\n        return _characters[characterId];\n    }\n\n    function getCharacterCardById(uint256 characterCardId)\n        public\n        view\n        returns (CharacterCard memory)\n    {\n        return _characterCards[characterCardId];\n    }\n\n    function getCardsByCharacter(uint256 characterId, uint8 limit)\n        public\n        view\n        returns (CharacterCard[] memory)\n    {\n        CharacterCard[] memory cards = new CharacterCard[](limit);\n        uint8 count = 0;\n        for (uint8 i = 0; i < nextCharacterCardId; i++) {\n            if (count < limit) {\n                if (_characterCards[i].characterId == characterId) {\n                    cards[count] = _characterCards[i];\n                    count++;\n                }\n            } else {\n                break;\n            }\n        }\n        return cards;\n    }\n\n    function getCardMaxSupply() public view returns (uint8) {\n        return CHARACTER_CARD_MAX_SUPPLY;\n    }\n\n    function getCardTypeMaxSupply(CardType cardType)\n        public\n        view\n        returns (uint8)\n    {\n        return (CHARACTER_CARD_MAX_SUPPLY / 100) * _cardsSupply[cardType];\n    }\n\n    /*\n    Events\n    */\n    event ClanMinted(uint256 clanId);\n    event CharacterMinted(uint256 characterId);\n    event CharacterCardMinted(uint256 characterCardId);\n    event CharacterCardTransfered(\n        uint256 characterCardId,\n        address oldOwner,\n        address newOwner\n    );\n}\n",
  "sourcePath": "/Users/lzoli/ForkHome/dapp-collectible-cards/contracts/CrackleRivals.sol",
  "compiler": {
    "name": "solc",
    "version": "0.8.0+commit.c7dfd78e.Emscripten.clang"
  },
  "schemaVersion": "3.4.3",
  "updatedAt": "2021-09-26T12:54:13.710Z",
  "networkType": "ethereum",
  "devdoc": {
    "kind": "dev",
    "methods": {
      "approve(address,uint256)": {
        "details": "See {IERC721-approve}."
      },
      "balanceOf(address)": {
        "details": "See {IERC721-balanceOf}."
      },
      "getApproved(uint256)": {
        "details": "See {IERC721-getApproved}."
      },
      "isApprovedForAll(address,address)": {
        "details": "See {IERC721-isApprovedForAll}."
      },
      "name()": {
        "details": "See {IERC721Metadata-name}."
      },
      "owner()": {
        "details": "Returns the address of the current owner."
      },
      "ownerOf(uint256)": {
        "details": "See {IERC721-ownerOf}."
      },
      "renounceOwnership()": {
        "details": "Leaves the contract without owner. It will not be possible to call `onlyOwner` functions anymore. Can only be called by the current owner. NOTE: Renouncing ownership will leave the contract without an owner, thereby removing any functionality that is only available to the owner."
      },
      "safeTransferFrom(address,address,uint256)": {
        "details": "See {IERC721-safeTransferFrom}."
      },
      "safeTransferFrom(address,address,uint256,bytes)": {
        "details": "See {IERC721-safeTransferFrom}."
      },
      "setApprovalForAll(address,bool)": {
        "details": "See {IERC721-setApprovalForAll}."
      },
      "supportsInterface(bytes4)": {
        "details": "See {IERC165-supportsInterface}."
      },
      "symbol()": {
        "details": "See {IERC721Metadata-symbol}."
      },
      "tokenURI(uint256)": {
        "details": "See {IERC721Metadata-tokenURI}."
      },
      "transferFrom(address,address,uint256)": {
        "details": "See {IERC721-transferFrom}."
      },
      "transferOwnership(address)": {
        "details": "Transfers ownership of the contract to a new account (`newOwner`). Can only be called by the current owner."
      }
    },
    "version": 1
  },
  "userdoc": {
    "kind": "user",
    "methods": {},
    "version": 1
  }
}